00BDIN9999BOVESPA 999920170126201701261829                                                                                                                                                                                                                                                                                                                    
0101IBOVESPA                      0658410658410665930663810663920661902017012605958820170102066190+00053+00014+00259+00350+00990+01291+00990+0765203502300105975310900000036021880000000734297414400066368                                                                                                                                                    
0102IEELETRICA                    0388460388340390570389560389450389872017012603606120170102038987+00063-00018+00197+00278+00797+01196+00797+0826001100400001505878500000001999610000000040386641700038971                                                                                                                                                    
0103IVBX2                         0090970090970091890091610091520091342017012600859320170102009134+00041+00014+00178+00272+00554+00857+00554+0440002902000105045030800000018856620000000313027085800009157                                                                                                                                                    
0104IBRX BRASIL                   0270310270310273440272610272650271912017012602453820170102027191+00059+00017+00259+00352+00970+01267+00970+0725606303300410088726800000041746550000000806917457100027256                                                                                                                                                    
0106IBRX 50                       0109790109790111050110690110710110382017012600995920170102011038+00054+00015+00255+00344+00966+01264+00966+0728402902100005069721000000034124700000000706869808900011067                                                                                                                                                    
0108IGOVERNANCA                   0097480097480098880098610098670098572017012600896020170102009857+00112+00026+00311+00408+00902+01196+00902+0591411905300918382279500000038546800000000719151328000009859                                                                                                                                                    
0109ISUSTENTABIL                  0024990024990025260025190025190025182017012600238720170102002518+00079-00000+00274+00304+00451+00761+00451+0345502800900103838253300000014772610000000338060101000002518                                                                                                                                                    
0110ITAG ALONG                    0138150138150140380139950140130140042017012601280420170102014004+00137-00008+00298+00370+00846+01168+00846+0583611505000917673716500000032015720000000575586397100013994                                                                                                                                                    
0111INDUSTRIAL                    0132520132410133780132900132710132512017012401247420170102013243-00007+00028+00129+00210+00545+00808+00545+0201502601700504825742900000014092760000000157171525900013284                                                                                                                                                    
0112SMALL CAP                     0012320012320012490012460012460012482017012600110720170102001248+00128+00091+00329+00453+01227+01498+01227+0727004701200306224556600000011767040000000130628097400001246                                                                                                                                                    
0113MIDLARGE CAP                  0012550012550012700012650012660012622017012600114020170102001262+00056+00010+00254+00344+00949+01251+00949+0726103202100105467320100000031953070000000695612831500001265                                                                                                                                                    
0114ICONSUMO                      0029670029670029990029870029840029792017012600280620170102002979+00038+00066+00132+00238+00546+00765+00546+0349603101000204325115200000010220700000000167735819300002986                                                                                                                                                    
0115IMOBILIARIO                   0006590006590006680006650006650006642017012600058020170102000664+00076+00027+00243+00354+01520+01764+01520+0592600800400101308021400000004345170000000039723398900000665                                                                                                                                                    
0116IFINANCEIRO                   0068470068470070220069840070070070132017012600629320170102007013+00242-00056+00447+00496+01014+01382+01014+0792801500000001522287800000010050840000000255001213500006987                                                                                                                                                    
0117ICO2                          0015190015190015420015380015400015392017012600141720170102001539+00131-00030+00300+00353+00766+01076+00766+0578301900900002842332900000017120520000000392249771500001538                                                                                                                                                    
0118IGC TRADE                     0027390027390027790027700027720027662017012600247220170102002766+00099+00030+00340+00443+01080+01393+01080+0718207602700410780077600000037072200000000710977821300002769                                                                                                                                                    
0119UTILITIES                     0040620040620041060040840040800040792017012600377120170102004079+00043-00000+00205+00311+00815+01116+00815+0852501400500001908123900000002816200000000056492805500004083                                                                                                                                                    
0120I DIVIDENDOS                  0034950034950035730035530035630035702017012600322620170102003570+00216-00083+00369+00483+00985+01342+00985+1101802500600103221189200000008811650000000158283228400003554                                                                                                                                                    
0121IMAT BASICOS                  0020630020480020940020630020570020622017012400178320170102002048-00070+00027+00264+00369+01345+01694+01345+0940000300900001213965000000009299700000000173799103800002063                                                                                                                                                    
0122IBRASIL                       0025070025070025370025290025290025232017012600227620170102002523+00063+00018+00262+00355+00978+01278+00978+0727407903300411691876700000043720110000000826240928900002528                                                                                                                                                    
0123BDRX                          0039090039090039660039410039510039802017010600387720170123003946+00107+00069+00114+00069-00042-00147-00042-0052605401100012400009800000000004950000000000870050000003904                                                                                                                                                    
0124IND FDO IMOB                  0019260019190019260019230019230019282017012300187220170102001922-00021-00010+00006+00022+00312+00334+00312+0460402803800607300915000000000043014000000002686424825001920                                                                                                                                                    
0125IGC - NM                      0020450020450020740020700020710020722017012600194120170102002072+00135+00028+00268+00366+00584+00855+00584+0401108303300612451309100000021135490000000379107428200002070                                                                                                                                                    
0202LOTE PADRAO                   3M          DRN        MMMC34      010VISTA          0000000001412300000014123000000141230000001412300000014123+000230000000000000000000000000010000000000004000000000000564920000000000000000000000MOEDA CORRENTE 00000010000000000000BRMMMCBDR0001190               0000000023                                            
0202LOTE PADRAO                   ABC BRASIL  PN      N2 ABCB4       010VISTA          0000000000165000000001696000000016500000000166100000001677+002310000000167600000001677009280000000014999000000000249202390000000000000000000000MOEDA CORRENTE 00000010000000000000BRABCBACNPR41270               0000000231                                            
0202LOTE PADRAO                   ACO ALTONA  PN         EALT4       010VISTA          0000000000000000000000000000000000000000000000000000000000/000000000000102000000001325000000000000000000000000000000000000000000000000000000000MOEDA CORRENTE 00000010000000000000BREALTACNPR11290               0000000000                                            
0202LOTE PADRAO                   ADVANCED-DH ON  EG     ADHM3       010VISTA          0000000000040000000000404000000003610000000037600000000365-006640000000036500000000367001250000000001004000000000003774700000000000000000000000MOEDA CORRENTE 00000010000000000000BRADHMACNOR91010               0000000664                                            
0202LOTE PADRAO                   AES ELPA    ON         AELP3       010VISTA          0000000000000000000000000000000000000000000000000000000000/000000000000121000000001550000000000000000000000000000000000000000000000000000000000MOEDA CORRENTE 00000010000000000000BRAELPACNOR21230               0000000000                                            
0202LOTE PADRAO                   AES TIETE E ON      N2 TIET3       010VISTA          0000000000030500000000319000000002970000000030200000000319+006330000000031500000000329001850000000000476000000000001438320000000000000000000000MOEDA CORRENTE 00000010000000000000BRTIETACNOR01060               0000000633                                            
0202LOTE PADRAO                   AES TIETE E PN      N2 TIET4       010VISTA          0000000000029000000000297000000002860000000029000000000286-002050000000028600000000289003180000000001544000000000004478530000000000000000000000MOEDA CORRENTE 00000010000000000000BRTIETACNPR71060               0000000205                                            
0202LOTE PADRAO                   AES TIETE E UNT     N2 TIET11      010VISTA          0000000000144200000001488000000014420000000146500000001475+002640000000146100000001475038110000000007859000000000115138880000000000000000000000MOEDA CORRENTE 00000010000000000000BRTIETCDAM151060               0000000264                                            
0202LOTE PADRAO                   AETNA INC   DRN        AETB34      010VISTA          0000000003759000000037843000000375900000003759400000037843+000450000000000000000000000000020000000000066000000000024811930000000000000000000000MOEDA CORRENTE 00000010000000000000BRAETBBDR0091020               0000000045                                            
0202LOTE PADRAO                   AFLUENTE    ON         AFLU3       010VISTA          0000000000047500000000475000000004750000000047500000000475=000000000000047500000000547000010000000000001000000000000004750000000000000000000000MOEDA CORRENTE 00000010000000000000BRAFLUACNOR91210               0000000000                                            
0202LOTE PADRAO                   AFLUENTE T  ON         AFLT3       010VISTA          0000000000000000000000000000000000000000000000000000000000/000000000000036000000000000000000000000000000000000000000000000000000000000000000000MOEDA CORRENTE 00000010000000000000BRAFLTACNOR11090               0000000000                                            
0202LOTE PADRAO                   AIG GROUP   DRN        AIGB34      010VISTA          0000000002105100000021051000000210510000002105100000021051-001040000000000000000000000000010000000000001000000000000210510000000000000000000000MOEDA CORRENTE 00000010000000000000BRAIGBBDR0071010               0000000104                                            
0202LOTE PADRAO                   ALFA CONSORCON  ED     BRGE3       010VISTA          0000000000042100000000421000000004210000000042100000000421+000710000000042100000000470000010000000000004000000000000016840000000000000000000000MOEDA CORRENTE 00000010000000000000BRBRGEACNOR62000               0000000071                                            
0202LOTE PADRAO                   ALFA CONSORCPNA ED     BRGE5       010VISTA          0000000000000000000000000000000000000000000000000000000000/000000000000021000000000000000000000000000000000000000000000000000000000000000000000MOEDA CORRENTE 00000010000000000000BRBRGEACNPA92040               0000000000                                            
0202LOTE PADRAO                   ALFA CONSORCPNB ED     BRGE6       010VISTA          0000000000000000000000000000000000000000000000000000000000/000000000000040000000000000000000000000000000000000000000000000000000000000000000000MOEDA CORRENTE 00000010000000000000BRBRGEACNPB72050               0000000000                                            
0202LOTE PADRAO                   ALFA CONSORCPND ED     BRGE8       010VISTA          0000000000000000000000000000000000000000000000000000000000/000000000000030000000000000000000000000000000000000000000000000000000000000000000000MOEDA CORRENTE 00000010000000000000BRBRGEACNPD32070               0000000000                                            
0202LOTE PADRAO                   ALFA CONSORCPNE ED     BRGE11      010VISTA          0000000000000000000000000000000000000000000000000000000000/000000000000036200000000800000000000000000000000000000000000000000000000000000000000MOEDA CORRENTE 00000010000000000000BRBRGEACNPE10980               0000000000                                            
0202LOTE PADRAO                   ALFA CONSORCPNF ED     BRGE12      010VISTA          0000000000000000000000000000000000000000000000000000000000/000000000000030000000000370000000000000000000000000000000000000000000000000000000000MOEDA CORRENTE 00000010000000000000BRBRGEACNPF80940               0000000000                                            
0202LOTE PADRAO                   ALFA FINANC ON         CRIV3       010VISTA          0000000000035000000000350000000003500000000035000000000350-005400000000035000000000370000070000000000066000000000000231000000000000000000000000MOEDA CORRENTE 00000010000000000000BRCRIVACNOR41900               0000000540                                            
0202LOTE PADRAO                   ALFA FINANC PN  EJ     CRIV4       010VISTA          0000000000040000000000400000000004000000000040000000000400=000000000000038700000000400000010000000000001000000000000004000000000000000000000000MOEDA CORRENTE 00000010000000000000BRCRIVACNPR11970               0000000000                                            
0202LOTE PADRAO                   ALFA HOLDINGON         RPAD3       010VISTA          0000000000035000000000350000000003010000000033600000000301-014000000000030600000000340000030000000000048000000000000161140000000000000000000000MOEDA CORRENTE 00000010000000000000BRRPADACNOR11950               0000001400                                            
0202LOTE PADRAO                   ALFA HOLDINGPNA ED     RPAD5       010VISTA          0000000000046200000000470000000004620000000046900000000470+003750000000047000000000500000050000000000440000000000002064350000000000000000000000MOEDA CORRENTE 00000010000000000000BRRPADACNPA42040               0000000375                                            
0202LOTE PADRAO                   ALFA HOLDINGPNB        RPAD6       010VISTA          0000000000000000000000000000000000000000000000000000000000/000000000000027500000000300000000000000000000000000000000000000000000000000000000000MOEDA CORRENTE 00000010000000000000BRRPADACNPB21950               0000000000                                            
0202LOTE PADRAO                   ALFA INVEST ON  EJ     BRIV3       010VISTA          0000000000046000000000460000000004600000000046000000000460+002220000000044300000000460000030000000000004000000000000018400000000000000000000000MOEDA CORRENTE 00000010000000000000BRBRIVACNOR62040               0000000222                                            
0202LOTE PADRAO                   ALFA INVEST PN  EJ     BRIV4       010VISTA          0000000000060000000000600000000006000000000060000000000600+003440000000058600000000590000010000000000010000000000000060000000000000000000000000MOEDA CORRENTE 00000010000000000000BRBRIVACNPR32040               0000000344                                            
0202LOTE PADRAO                   ALIANSCE    ON      NM ALSC3       010VISTA          0000000000153300000001553000000015260000000153700000001526-000260000000152600000001537012370000000002150000000000033049980000000000000000000000MOEDA CORRENTE 00000010000000000000BRALSCACNOR01100               0000000026                                            
0202LOTE PADRAO                   ALIPERTI    ON         APTI3       010VISTA          0000000000000000000000000000000000000000000000000000000000/000000000030000000000000000000000000000000000000000000000000000000000000000000000000MOEDA CORRENTE 00000010000000000000BRAPTIACNOR61290               0000000000                                            
0202LOTE PADRAO                   ALIPERTI    PN         APTI4       010VISTA          0000000000000000000000000000000000000000000000000000000000/000000000030000000000000000000000000000000000000000000000000000000000000000000000000MOEDA CORRENTE 00000010000000000000BRAPTIACNPR31290               0000000000                                            
0202LOTE PADRAO                   ALLIAR      ON      NM AALR3       010VISTA          0000000000143600000001440000000014210000000143000000001429-000690000000142700000001429006040000000001717000000000024556220000000000000000000000MOEDA CORRENTE 00000010000000000000BRAALRACNOR61000               0000000069                                            
0202LOTE PADRAO                   ALPARGATAS  ON      N1 ALPA3       010VISTA          0000000000093000000001000000000009300000000099000000001000+005260000000100000000001008000130000000000023000000000000227600000000000000000000000MOEDA CORRENTE 00000010000000000000BRALPAACNOR02190               0000000526                                            
0202LOTE PADRAO                   ALPARGATAS  PN      N1 ALPA4       010VISTA          0000000000101000000001077000000010090000000102100000001065+005650000000105900000001065021980000000024588000000000251011310000000000000000000000MOEDA CORRENTE 00000010000000000000BRALPAACNPR72190               0000000565                                            
0202LOTE PADRAO                   ALPHABET    DRN A      GOGL34      010VISTA          0000000001080000000010913000000108000000001085600000010908+000970000000000000000000000000090000000000014000000000001519810000000000000000000000MOEDA CORRENTE 00000010000000000000BRGOGLBDR0011000               0000000097                                            
0202LOTE PADRAO                   ALPHABET    DRN C      GOGL35      010VISTA          0000000001052600000010600000000105260000001057500000010600+001060000000000000000000000000020000000000003000000000000317260000000000000000000000MOEDA CORRENTE 00000010000000000000BRGOGLBDR0191000               0000000106                                            
0202LOTE PADRAO                   ALUPAR      ON      N2 ALUP3       010VISTA          0000000000000000000000000000000000000000000000000000000000/000000000000060000000000000000000000000000000000000000000000000000000000000000000000MOEDA CORRENTE 00000010000000000000BRALUPACNOR81050               0000000000                                            
0202LOTE PADRAO                   ALUPAR      PN      N2 ALUP4       010VISTA          0000000000000000000000000000000000000000000000000000000000/000000000000050000000000549000000000000000000000000000000000000000000000000000000000MOEDA CORRENTE 00000010000000000000BRALUPACNPR51050               0000000000                                            
0202LOTE PADRAO                   ALUPAR      UNT     N2 ALUP11      010VISTA          0000000000181700000001840000000018130000000182700000001830+000660000000182900000001830016960000000003625000000000066240710000000000000000000000MOEDA CORRENTE 00000010000000000000BRALUPCDAM151050               0000000066                                            
0202LOTE PADRAO                   AMAZON      DRN        AMZO34      010VISTA          0000000013343000000133758000001334300000013353900000133758+004100000000000000000000000000020000000000003000000000004006180000000000000000000000MOEDA CORRENTE 00000010000000000000BRAMZOBDR0021010               0000000410                                            
0202LOTE PADRAO                   AMAZONIA    ON         BAZA3       010VISTA          0000000000297000000002970000000029120000000294100000002912-001950000000291200000002939000020000000000002000000000000058820000000000000000000000MOEDA CORRENTE 00000010000000000000BRBAZAACNOR01700               0000000195                                            
0202LOTE PADRAO                   AMBEV S/A   ON  ED    .ABEV3       010VISTA          0000000000173600000001747000000017300000000173600000001731+000050000000173000000001732148810000000077890000000001352089540000000000000000000000MOEDA CORRENTE 00000010000000000000BRABEVACNOR11160               0000000005                                            
0202LOTE PADRAO                   AMGEN       DRN        AMGN34      010VISTA          0000000004874500000048745000000487450000004874500000048745+001130000000000000000000000000010000000000001000000000000487450000000000000000000000MOEDA CORRENTE 00000010000000000000BRAMGNBDR0041200               0000000113                                            
0202LOTE PADRAO                   AMPLA ENERG ON         CBEE3       010VISTA          0000000000000000000000000000000000000000000000000000000000/000000000000360000000004600000000000000000000000000000000000000000000000000000000000MOEDA CORRENTE 00000010000000000000BRCBEEACNOR31520               0000000000                                            
0202LOTE PADRAO                   ANIMA       ON      NM ANIM3       010VISTA          0000000000133500000001375000000013350000000135600000001364+002170000000136200000001366005370000000000862000000000011692290000000000000000000000MOEDA CORRENTE 00000010000000000000BRANIMACNOR61030               0000000217                                            
0202LOTE PADRAO                   APPLE       DRN        AAPL34      010VISTA          0000000000386400000003900000000038610000000387500000003900+002950000000374300000004025000030000000000096000000000003719970000000000000000000000MOEDA CORRENTE 00000010000000000000BRAAPLBDR0041190               0000000295                                            
0202LOTE PADRAO                   AREZZO CO   ON      NM ARZZ3       010VISTA          0000000000287000000002912000000028360000000287400000002885+001870000000287300000002899006490000000001786000000000051322720000000000000000000000MOEDA CORRENTE 00000010000000000000BRARZZACNOR31230               0000000187                                            
0202LOTE PADRAO                   AZEVEDO     ON         AZEV3       010VISTA          0000000000000000000000000000000000000000000000000000000000/000000000000012000000000251000000000000000000000000000000000000000000000000000000000MOEDA CORRENTE 00000010000000000000BRAZEVACNOR01160               0000000000                                            
0202LOTE PADRAO                   AZEVEDO     PN         AZEV4       010VISTA          0000000000012200000000122000000001210000000012200000000121-000810000000012100000000127000080000000000057000000000000069510000000000000000000000MOEDA CORRENTE 00000010000000000000BRAZEVACNPR71160               0000000081                                            
0202LOTE PADRAO                   B2W DIGITAL ON      NM BTOW3       010VISTA          0000000000125000000001284000000012400000000126200000001269+003420000000126100000001269041250000000010298000000000129950500000000000000000000000MOEDA CORRENTE 00000010000000000000BRBTOWACNOR81080               0000000342                                            
0202LOTE PADRAO                   BAHEMA      ON         BAHI3       010VISTA          0000000000000000000000000000000000000000000000000000000000/000000000000271100000003000000000000000000000000000000000000000000000000000000000000MOEDA CORRENTE 00000010000000000000BRBAHIACNOR10690               0000000000                                            
0202LOTE PADRAO                   BANCO PAN   PN      N1 BPAN4       010VISTA          0000000000015800000000159000000001560000000015800000000157+001290000000015700000000159000310000000000253000000000000400150000000000000000000000MOEDA CORRENTE 00000010000000000000BRBPANACNPR11040               0000000129                                            
0202LOTE PADRAO                   BANESE      ON         BGIP3       010VISTA          0000000000186000000001860000000018600000000186000000001860=000000000000185900000001900000010000000000001000000000000018600000000000000000000000MOEDA CORRENTE 00000010000000000000BRBGIPACNOR11870               0000000000                                            
0202LOTE PADRAO                   BANESE      PN         BGIP4       010VISTA          0000000000165100000001700000000016510000000167300000001700+003030000000167300000001700000160000000000043000000000000719520000000000000000000000MOEDA CORRENTE 00000010000000000000BRBGIPACNPR81870               0000000303                                            
0202LOTE PADRAO                   BANESTES    ON         BEES3       010VISTA          0000000000030600000000325000000003020000000031900000000325+002840000000031100000000325000260000000000164000000000000523270000000000000000000000MOEDA CORRENTE 00000010000000000000BRBEESACNOR92900               0000000284                                            
0202LOTE PADRAO                   BANESTES    PN         BEES4       010VISTA          0000000000031600000000368000000003160000000032100000000368+012530000000032100000000366000020000000000011000000000000035280000000000000000000000MOEDA CORRENTE 00000010000000000000BRBEESACNPR62150               0000001253                                            
0202LOTE PADRAO                   BANK AMERICADRN        BOAC34      010VISTA          0000000000741800000007461000000074120000000744200000007461+002660000000000000000000000000030000000000018000000000001339610000000000000000000000MOEDA CORRENTE 00000010000000000000BRBOACBDR0041250               0000000266                                            
0202LOTE PADRAO                   BANPARA     ON         BPAR3       010VISTA          0000000000000000000000000000000000000000000000000000000000/000000000000000100000000000000000000000000000000000000000000000000000000000000000000MOEDA CORRENTE 00000010000000000000BRBPARACNOR51410               0000000000                                            
0202LOTE PADRAO                   BANRISUL    ON      N1 BRSR3       010VISTA          0000000000143500000001489000000014350000000145200000001441+000060000000144100000001599000110000000000011000000000000159740000000000000000000000MOEDA CORRENTE 00000010000000000000BRBRSRACNOR31460               0000000006                                            
0202LOTE PADRAO                   BANRISUL    PNA     N1 BRSR5       010VISTA          0000000000140200000001402000000014020000000140200000001402+007840000000143000000001499000010000000000001000000000000014020000000000000000000000MOEDA CORRENTE 00000010000000000000BRBRSRACNPA61500               0000000784                                            
0202LOTE PADRAO                   BANRISUL    PNB     N1 BRSR6       010VISTA          0000000000137500000001499000000013750000000146200000001487+014200000000148600000001487087900000000047596000000000695957880000000000000000000000MOEDA CORRENTE 00000010000000000000BRBRSRACNPB41490               0000001420                                            
0202LOTE PADRAO                   BANSANTANDERDR3        BSAN33      010VISTA          0000000000170000000001700000000017000000000170000000001700+003030000000150000000001750000020000000000004000000000000068000000000000000000000000MOEDA CORRENTE 00000010000000000000BRBSANBDR0021080               0000000303                                            
0202LOTE PADRAO                   BARDELLA    PN         BDLL4       010VISTA          0000000000410000000004100000000041000000000410000000004100+001990000000385000000004100000010000000000001000000000000041000000000000000000000000MOEDA CORRENTE 00000010000000000000BRBDLLACNPR81510               0000000199                                            
0202LOTE PADRAO                   BATTISTELLA ON         BTTL3       010VISTA          0000000000086500000000870000000008650000000086600000000865-004940000000086500000000880000040000000000008000000000000069250000000000000000000000MOEDA CORRENTE 00000010000000000000BRBTTLACNOR01070               0000000494                                            
0202LOTE PADRAO                   BATTISTELLA PN         BTTL4       010VISTA          0000000000080500000000805000000008000000000080300000000800-003490000000080300000000829000090000000000046000000000000369440000000000000000000000MOEDA CORRENTE 00000010000000000000BRBTTLACNPR71070               0000000349                                            
0202LOTE PADRAO                   BAUMER      ON         BALM3       010VISTA          0000000000000000000000000000000000000000000000000000000000/000000000000030000000000000000000000000000000000000000000000000000000000000000000000MOEDA CORRENTE 00000010000000000000BRBALMACNOR50460               0000000000                                            
0202LOTE PADRAO                   BAUMER      PN         BALM4       010VISTA          0000000000083000000000830000000008300000000083000000000830+001210000000080000000000881000010000000000004000000000000033200000000000000000000000MOEDA CORRENTE 00000010000000000000BRBALMACNPR20470               0000000121                                            
0202LOTE PADRAO                   BB ETF SP DVCI         BBSD11      010VISTA          0000000000462200000004645000000046130000000463400000004645+002690000000440000000000000000100000000000002400000000000111212000000000000000000000MOEDA CORRENTE 00000010000000000000BRBBSDCTF0001000               0000000269                                            
0202LOTE PADRAO                   BBSEGURIDADEON      NM.BBSE3       010VISTA          0000000000274000000002837000000027390000000280900000002820+003070000000281800000002825113140000000035129000000000986948780000000000000000000000MOEDA CORRENTE 00000010000000000000BRBBSEACNOR51070               0000000307                                            
0202LOTE PADRAO                   BERKSHIRE   DRN        BERK34      010VISTA          0000000000000000000000000000000000000000000000000000000000/000000000004851400000055852000000000000000000000000000000000000000000000000000000000MOEDA CORRENTE 00000010000000000000BRBERKBDR0021000               0000000000                                            
0202LOTE PADRAO                   BIC MONARK  ON         BMKS3       010VISTA          0000000002980000000029800000000298000000002980000000029800=000000000002720100000029800000010000000000000050000000000014900000000000000000000000MOEDA CORRENTE 00000010000000000000BRBMKSACNOR91580               0000000000                                            
0202LOTE PADRAO                   BIOGEN      DRN        BIIB34      010VISTA          0000000001490900000014909000000149090000001490900000014909+003030000000000000000000000000010000000000003000000000000447270000000000000000000000MOEDA CORRENTE 00000010000000000000BRBIIBBDR0011010               0000000303                                            
0202LOTE PADRAO                   BIOMM       ON      MA BIOM3       010VISTA          0000000000065000000000651000000006320000000064900000000632-009710000000062400000000659000130000000000088000000000000570760000000000000000000000MOEDA CORRENTE 00000010000000000000BRBIOMACNOR21040               0000000971                                            
0202LOTE PADRAO                   BIOSEV      ON      NM BSEV3       010VISTA          0000000000075000000000750000000007420000000074800000000743-000800000000074300000000754002670000000001654000000000012375360000000000000000000000MOEDA CORRENTE 00000010000000000000BRBSEVACNOR31010               0000000080                                            
0202LOTE PADRAO                   BMFBOVESPA  ON      NM.BVMF3       010VISTA          0000000000182800000001852000000018040000000182900000001830+001040000000183000000001832249960000000114280000000002089845390000000000000000000000MOEDA CORRENTE 00000010000000000000BRBVMFACNOR31400               0000000104                                            
0202LOTE PADRAO                   BOMBRIL     PN         BOBR4       010VISTA          0000000000025500000000270000000002510000000025900000000251-000790000000025000000000251000730000000000610000000000001578830000000000000000000000MOEDA CORRENTE 00000010000000000000BRBOBRACNPR31280               0000000079                                            
0202LOTE PADRAO                   BR BROKERS  ON      NM BBRK3       010VISTA          0000000000017500000000176000000001720000000017400000000174-000570000000017400000000176002060000000001014000000000001765590000000000000000000000MOEDA CORRENTE 00000010000000000000BRBBRKACNOR41100               0000000057                                            
0202LOTE PADRAO                   BR INSURANCEON      NM BRIN3       010VISTA          0000000000201500000002020000000019820000000200700000002020+001000000000199200000002020000470000000000297000000000005959380000000000000000000000MOEDA CORRENTE 00000010000000000000BRBRINACNOR31110               0000000100                                            
0202LOTE PADRAO                   BR MALLS PARON      NM.BRML3       010VISTA          0000000000141600000001424000000013760000000139800000001397-000560000000139300000001398215020000000096043000000001342399310000000000000000000000MOEDA CORRENTE 00000010000000000000BRBRMLACNOR91090               0000000056                                            
0202LOTE PADRAO                   BR PHARMA   ON      NM BPHA3       010VISTA          0000000000072000000000785000000006970000000073100000000705+001140000000070500000000710010350000000005351000000000039109550000000000000000000000MOEDA CORRENTE 00000010000000000000BRBPHAACNOR61040               0000000114                                            
0202LOTE PADRAO                   BR PROPERT  ON      NM BRPR3       010VISTA          0000000000078500000000800000000007790000000079300000000786+000890000000078600000000792025340000000022659000000000179686940000000000000000000000MOEDA CORRENTE 00000010000000000000BRBRPRACNOR91160               0000000089                                            
0202LOTE PADRAO                   BRADESCO    ON      N1.BBDC3       010VISTA          0000000000328800000003302000000032410000000327600000003288+001730000000327600000003288080860000000021773000000000713300260000000000000000000000MOEDA CORRENTE 00000010000000000000BRBBDCACNOR16590               0000000173                                            
0202LOTE PADRAO                   BRADESCO    PN      N1.BBDC4       010VISTA          0000000000326700000003309000000032280000000328000000003284+002240000000328200000003284234500000000102582000000003364471580000000000000000000000MOEDA CORRENTE 00000010000000000000BRBBDCACNPR86590               0000000224                                            
0202LOTE PADRAO                   BRADESPAR   ON      N1 BRAP3       010VISTA          0000000000188500000001889000000017810000000182000000001790-002660000000179000000001810000620000000000212000000000003858020000000000000000000000MOEDA CORRENTE 00000010000000000000BRBRAPACNOR51300               0000000266                                            
0202LOTE PADRAO                   BRADESPAR   PN      N1.BRAP4       010VISTA          0000000000225500000002280000000021700000000220200000002170-002550000000217000000002178074910000000026940000000000593330400000000000000000000000MOEDA CORRENTE 00000010000000000000BRBRAPACNPR21300               0000000255                                            
0202LOTE PADRAO                   BRASIL      ON      NM.BBAS3       010VISTA          0000000000310000000003200000000030750000000314800000003200+006310000000319000000003200275400000000135305000000004258945220000000000000000000000MOEDA CORRENTE 00000010000000000000BRBBASACNOR32650               0000000631                                            
0202LOTE PADRAO                   BRASILAGRO  ON      NM AGRO3       010VISTA          0000000000116300000001195000000011600000000118000000001181+001540000000118100000001184003880000000001179000000000013907160000000000000000000000MOEDA CORRENTE 00000010000000000000BRAGROACNOR71060               0000000154                                            
0202LOTE PADRAO                   BRASKEM     ON      N1 BRKM3       010VISTA          0000000000309700000003199000000030100000000312600000003198+004500000000305000000003197000120000000000121000000000003782990000000000000000000000MOEDA CORRENTE 00000010000000000000BRBRKMACNOR11140               0000000450                                            
0202LOTE PADRAO                   BRASKEM     PNA     N1.BRKM5       010VISTA          0000000000348000000003505000000033500000000341800000003400-001070000000339900000003400074930000000020268000000000692790400000000000000000000000MOEDA CORRENTE 00000010000000000000BRBRKMACNPA41140               0000000107                                            
0202LOTE PADRAO                   BRASKEM     PNB     N1 BRKM6       010VISTA          0000000000000000000000000000000000000000000000000000000000/000000000000200000000004999000000000000000000000000000000000000000000000000000000000MOEDA CORRENTE 00000010000000000000BRBRKMACNPB21110               0000000000                                            
0202LOTE PADRAO                   BRB BANCO   ON         BSLI3       010VISTA          0000000000000000000000000000000000000000000000000000000000/000000000000275000000000000000000000000000000000000000000000000000000000000000000000MOEDA CORRENTE 00000010000000000000BRBSLIACNOR51580               0000000000                                            
0202LOTE PADRAO                   BRB BANCO   PN         BSLI4       010VISTA          0000000000000000000000000000000000000000000000000000000000/000000000000210000000002300000000000000000000000000000000000000000000000000000000000MOEDA CORRENTE 00000010000000000000BRBSLIACNPR21580               0000000000                                            
0202LOTE PADRAO                   BRF SA      ON      NM.BRFS3       010VISTA          0000000000473100000004756000000045830000000463200000004590-002170000000459000000004591096120000000027512000000001274227130000000000000000000000MOEDA CORRENTE 00000010000000000000BRBRFSACNOR81170               0000000217                                            
0202LOTE PADRAO                   BRISTOLMYERSDRN        BMYB34      010VISTA          0000000001478000000014780000000147800000001478000000014780-004980000000000000000000000000010000000000010000000000001478000000000000000000000000MOEDA CORRENTE 00000010000000000000BRBMYBBDR0001130               0000000498                                            
0202LOTE PADRAO                   BTG PACTUAL UNT        BBTG11      010VISTA          0000000000169400000001714000000016540000000168400000001700+001790000000169900000001701022620000000006177000000000104034800000000000000000000000MOEDA CORRENTE 00000010000000000000BRBBTGUNT0071160               0000000179                                            
0202LOTE PADRAO                   BTGP BANCO  ON         BPAC3       010VISTA          0000000000000000000000000000000000000000000000000000000000/000000000000043600000000000000000000000000000000000000000000000000000000000000000000MOEDA CORRENTE 00000010000000000000BRBPACACNOR71150               0000000000                                            
0202LOTE PADRAO                   CABAMBIENTALON      MA CABB3       010VISTA          0000000000000000000000000000000000000000000000000000000000/000000000000000100000000000000000000000000000000000000000000000000000000000000000000MOEDA CORRENTE 00000010000000000000BRCABBACNOR71010               0000000000                                            
0202LOTE PADRAO                   CAIXAETFXBOVCI         XBOV11      010VISTA          0000000000658200000006582000000065820000000658200000006582+000540000000654700000006582000020000000000135100000000008892282000000000000000000000MOEDA CORRENTE 00000010000000000000BRXBOVCTF0051000               0000000054                                            
0202LOTE PADRAO                   CAMBUCI     PN         CAMB4       010VISTA          0000000000047700000000495000000004770000000048900000000488-001410000000048800000000492000060000000000028000000000000137040000000000000000000000MOEDA CORRENTE 00000010000000000000BRCAMBACNPR11180               0000000141                                            
0202LOTE PADRAO                   CAPITALPART ON      MB CPTP3B      010VISTA          0000000000000000000000000000000000000000000000000000000000/000000000000000000000005747000000000000000000000000000000000000000000000000000000000MOEDA CORRENTE 00000010000000000000BRCPTPACNOR71060               0000000000                                            
0202LOTE PADRAO                   CASAN       ON         CASN3       010VISTA          0000000000000000000000000000000000000000000000000000000000/000000000000055000000001800000000000000000000000000000000000000000000000000000000000MOEDA CORRENTE 00000010000000000000BRCASNACNOR61120               0000000000                                            
0202LOTE PADRAO                   CASAN       PN         CASN4       010VISTA          0000000000000000000000000000000000000000000000000000000000/000000000000080000000000000000000000000000000000000000000000000000000000000000000000MOEDA CORRENTE 00000010000000000000BRCASNACNPR31120               0000000000                                            
0202LOTE PADRAO                   CCR SA      ON      NM.CCRO3       010VISTA          0000000000155000000001585000000015150000000155200000001582+002460000000158100000001582282340000000083574000000001297364880000000000000000000000MOEDA CORRENTE 00000010000000000000BRCCROACNOR21300               0000000246                                            
0202LOTE PADRAO                   CCX CARVAO  ON      NM CCXC3       010VISTA          0000000000016100000000162000000001530000000015500000000153-004370000000015300000000154001860000000002956000000000004580920000000000000000000000MOEDA CORRENTE 00000010000000000000BRCCXCACNOR51020               0000000437                                            
0202LOTE PADRAO                   CEB         ON         CEBR3       010VISTA          0000000000000000000000000000000000000000000000000000000000/000000000000230000000002889000000000000000000000000000000000000000000000000000000000MOEDA CORRENTE 00000010000000000000BRCEBRACNOR51150               0000000000                                            
0202LOTE PADRAO                   CEB         PNA        CEBR5       010VISTA          0000000000000000000000000000000000000000000000000000000000/000000000000270200000002970000000000000000000000000000000000000000000000000000000000MOEDA CORRENTE 00000010000000000000BRCEBRACNPA81140               0000000000                                            
0202LOTE PADRAO                   CEB         PNB        CEBR6       010VISTA          0000000000000000000000000000000000000000000000000000000000/000000000000150100000002540000000000000000000000000000000000000000000000000000000000MOEDA CORRENTE 00000010000000000000BRCEBRACNPB61140               0000000000                                            
0202LOTE PADRAO                   CEDRO       ON      N1 CEDO3       010VISTA          0000000000000000000000000000000000000000000000000000000000/000000000000050500000000697000000000000000000000000000000000000000000000000000000000MOEDA CORRENTE 00000010000000000000BRCEDOACNOR80960               0000000000                                            
0202LOTE PADRAO                   CEDRO       PN      N1 CEDO4       010VISTA          0000000000039900000000415000000003900000000040500000000390+004000000000033100000000398000230000000000081000000000000328150000000000000000000000MOEDA CORRENTE 00000010000000000000BRCEDOACNPR51280               0000000400                                            
0202LOTE PADRAO                   CEEE-D      ON      N1 CEED3       010VISTA          0000000000000000000000000000000000000000000000000000000000/000000000000160000000002950000000000000000000000000000000000000000000000000000000000MOEDA CORRENTE 00000010000000000000BRCEEDACNOR91020               0000000000                                            
0202LOTE PADRAO                   CEEE-D      PN      N1 CEED4       010VISTA          0000000000000000000000000000000000000000000000000000000000/000000000000100000000003000000000000000000000000000000000000000000000000000000000000MOEDA CORRENTE 00000010000000000000BRCEEDACNPR61020               0000000000                                            
0202LOTE PADRAO                   CEEE-GT     ON      N1 EEEL3       010VISTA          0000000000000000000000000000000000000000000000000000000000/000000000000400100000008000000000000000000000000000000000000000000000000000000000000MOEDA CORRENTE 00000010000000000000BREEELACNOR81030               0000000000                                            
0202LOTE PADRAO                   CEEE-GT     PN      N1 EEEL4       010VISTA          0000000000000000000000000000000000000000000000000000000000/000000000000350000000006999000000000000000000000000000000000000000000000000000000000MOEDA CORRENTE 00000010000000000000BREEELACNPR51030               0000000000                                            
0202LOTE PADRAO                   CEG         ON         CEGR3       010VISTA          0000000000000000000000000000000000000000000000000000000000/000000000000220000000002600000000000000000000000000000000000000000000000000000000000MOEDA CORRENTE 00000010000000000000BRCEGRACNOR41300               0000000000                                            
0202LOTE PADRAO                   CELESC      ON      N2 CLSC3       010VISTA          0000000000000000000000000000000000000000000000000000000000/000000000000210000000002300000000000000000000000000000000000000000000000000000000000MOEDA CORRENTE 00000010000000000000BRCLSCACNOR61320               0000000000                                            
0202LOTE PADRAO                   CELESC      PN      N2 CLSC4       010VISTA          0000000000175300000001820000000017530000000179900000001781+001650000000177100000001806000360000000000141000000000002537160000000000000000000000MOEDA CORRENTE 00000010000000000000BRCLSCACNPR31110               0000000165                                            
0202LOTE PADRAO                   CELGENE CORPDRN        CLGN34      010VISTA          0000000003577000000035770000000357700000003577000000035770-002600000000000000000000000000010000000000018000000000006438600000000000000000000000MOEDA CORRENTE 00000010000000000000BRCLGNBDR0021000               0000000260                                            
0202LOTE PADRAO                   CELGPAR     ON         GPAR3       010VISTA          0000000000000000000000000000000000000000000000000000000000/000000000000054500000000800000000000000000000000000000000000000000000000000000000000MOEDA CORRENTE 00000010000000000000BRGPARACNOR41020               0000000000                                            
0202LOTE PADRAO                   CELPA       ON         CELP3       010VISTA          0000000000020200000000202000000001950000000019700000000201+001000000000019600000000201000250000000000361000000000000711910000000000000000000000MOEDA CORRENTE 00000010000000000000BRCELPACNOR81140               0000000100                                            
0202LOTE PADRAO                   CELPA       PNA        CELP5       010VISTA          0000000000029000000000290000000002900000000029000000000290=000000000000021000000000290000010000000000003000000000000008700000000000000000000000MOEDA CORRENTE 00000010000000000000BRCELPACNPA11160               0000000000                                            
0202LOTE PADRAO                   CELPA       PNB        CELP6       010VISTA          0000000000000000000000000000000000000000000000000000000000/000000000000010000000000000000000000000000000000000000000000000000000000000000000000MOEDA CORRENTE 00000010000000000000BRCELPACNPB91160               0000000000                                            
0202LOTE PADRAO                   CELPA       PNC        CELP7       010VISTA          0000000000017600000000201000000001760000000018400000000201-014460000000020000000000234000030000000000003000000000000005530000000000000000000000MOEDA CORRENTE 00000010000000000000BRCELPACNPC71160               0000001446                                            
0202LOTE PADRAO                   CELPE       PNA        CEPE5       010VISTA          0000000000173000000001730000000017300000000173000000001730+001160000000170100000001730000010000000000003000000000000051900000000000000000000000MOEDA CORRENTE 00000010000000000000BRCEPEACNPA61550               0000000116                                            
0202LOTE PADRAO                   CELPE       PNB        CEPE6       010VISTA          0000000000000000000000000000000000000000000000000000000000/000000000000000000000002250000000000000000000000000000000000000000000000000000000000MOEDA CORRENTE 00000010000000000000BRCEPEACNPB41550               0000000000                                            
0202LOTE PADRAO                   CELUL IRANI ON         RANI3       010VISTA          0000000000000000000000000000000000000000000000000000000000/000000000000028100000000285000000000000000000000000000000000000000000000000000000000MOEDA CORRENTE 00000010000000000000BRRANIACNOR50490               0000000000                                            
0202LOTE PADRAO                   CELUL IRANI PN         RANI4       010VISTA          0000000000000000000000000000000000000000000000000000000000/000000000000028100000000291000000000000000000000000000000000000000000000000000000000MOEDA CORRENTE 00000010000000000000BRRANIACNPR20500               0000000000                                            
0202LOTE PADRAO                   CEMAR       ON      MB ENMA3B      010VISTA          0000000000000000000000000000000000000000000000000000000000/000000000000190000000002850000000000000000000000000000000000000000000000000000000000MOEDA CORRENTE 00000010000000000000BRENMAACNOR51140               0000000000                                            
0202LOTE PADRAO                   CEMEPE      ON         MAPT3       010VISTA          0000000000000000000000000000000000000000000000000000000000/000000000000000000000000700000000000000000000000000000000000000000000000000000000000MOEDA CORRENTE 00000010000000000000BRMAPTACNOR81060               0000000000                                            
0202LOTE PADRAO                   CEMEPE      PN         MAPT4       010VISTA          0000000000000000000000000000000000000000000000000000000000/000000000000010000000000300000000000000000000000000000000000000000000000000000000000MOEDA CORRENTE 00000010000000000000BRMAPTACNPR51060               0000000000                                            
0202LOTE PADRAO                   CEMIG       ON      N1 CMIG3       010VISTA          0000000000094400000000966000000009440000000095500000000945-000520000000094500000000962001500000000000488000000000004662160000000000000000000000MOEDA CORRENTE 00000010000000000000BRCMIGACNOR62180               0000000052                                            
0202LOTE PADRAO                   CEMIG       PN      N1.CMIG4       010VISTA          0000000000092000000000928000000009010000000091200000000907-000650000000090600000000907113350000000062217000000000567508250000000000000000000000MOEDA CORRENTE 00000010000000000000BRCMIGACNPR32180               0000000065                                            
0202LOTE PADRAO                   CESP        ON      N1 CESP3       010VISTA          0000000000144700000001447000000014470000000144700000001447+002260000000142000000001446000010000000000001000000000000014470000000000000000000000MOEDA CORRENTE 00000010000000000000BRCESPACNOR31650               0000000226                                            
0202LOTE PADRAO                   CESP        PNA     N1 CESP5       010VISTA          0000000000199000000001990000000019900000000199000000001990=000000000000140600000001988000010000000000001000000000000019900000000000000000000000MOEDA CORRENTE 00000010000000000000BRCESPACNPA61130               0000000000                                            
0202LOTE PADRAO                   CESP        PNB     N1 CESP6       010VISTA          0000000000171000000001713000000016760000000169500000001695-000870000000169100000001695040990000000010094000000000171070590000000000000000000000MOEDA CORRENTE 00000010000000000000BRCESPACNPB41240               0000000087                                            
0202LOTE PADRAO                   CETIP       ON      NM.CTIP3       010VISTA          0000000000463000000004688000000046300000000466400000004670+000660000000466800000004677075610000000019546000000000911618340000000000000000000000MOEDA CORRENTE 00000010000000000000BRCTIPACNOR21450               0000000066                                            
0202LOTE PADRAO                   CHESAPEAKE  DRN        CHKE34      010VISTA          0000000000226500000002282000000022650000000227100000002282+002560000000000000000000000000030000000000006000000000000136240000000000000000000000MOEDA CORRENTE 00000010000000000000BRCHKEBDR0011000               0000000256                                            
0202LOTE PADRAO                   CIA HERING  ON      NM HGTX3       010VISTA          0000000000158500000001615000000015680000000159000000001610+002870000000161000000001612021730000000005316000000000084519910000000000000000000000MOEDA CORRENTE 00000010000000000000BRHGTXACNOR91360               0000000287                                            
0202LOTE PADRAO                   CIELO       ON      NM.CIEL3       010VISTA          0000000000261500000002696000000026150000000266100000002696+004050000000269300000002697357720000000168183000000004475454380000000000000000000000MOEDA CORRENTE 00000010000000000000BRCIELACNOR31220               0000000405                                            
0202LOTE PADRAO                   CITIGROUP   DRN        CTGP34      010VISTA          0000000001825900000018259000000182590000001825900000018259+001370000000000000000000000000010000000000002000000000000365180000000000000000000000MOEDA CORRENTE 00000010000000000000BRCTGPBDR0001240               0000000137                                            
0202LOTE PADRAO                   COCA COLA   DRN        COCA34      010VISTA          0000000001329800000013298000000132980000001329800000013298+001040000000000000000000000000010000000000001000000000000132980000000000000000000000MOEDA CORRENTE 00000010000000000000BRCOCABDR0021210               0000000104                                            
0202LOTE PADRAO                   COELBA      ON         CEEB3       010VISTA          0000000000000000000000000000000000000000000000000000000000/000000000000190100000002300000000000000000000000000000000000000000000000000000000000MOEDA CORRENTE 00000010000000000000BRCEEBACNOR31690               0000000000                                            
0202LOTE PADRAO                   COELBA      PNA        CEEB5       010VISTA          0000000000000000000000000000000000000000000000000000000000/000000000000190100000000000000000000000000000000000000000000000000000000000000000000MOEDA CORRENTE 00000010000000000000BRCEEBACNPA61630               0000000000                                            
0202LOTE PADRAO                   COELCE      ON         COCE3       010VISTA          0000000000000000000000000000000000000000000000000000000000/000000000000370000000004200000000000000000000000000000000000000000000000000000000000MOEDA CORRENTE 00000010000000000000BRCOCEACNOR01350               0000000000                                            
0202LOTE PADRAO                   COELCE      PNA        COCE5       010VISTA          0000000000479000000004816000000047900000000480100000004800-000200000000479500000004820000380000000000069000000000003312500000000000000000000000MOEDA CORRENTE 00000010000000000000BRCOCEACNPA31360               0000000020                                            
0202LOTE PADRAO                   COLGATE     DRN ED     COLG34      010VISTA          0000000002167500000021675000000216750000002167500000021675+001170000000000000000000000000010000000000046000000000009970500000000000000000000000MOEDA CORRENTE 00000010000000000000BRCOLGBDR0001230               0000000117                                            
0202LOTE PADRAO                   COMCAST     DRN        CMCS34      010VISTA          0000000002384900000023849000000238490000002384900000023849+002430000000000000000000000000010000000000009000000000002146410000000000000000000000MOEDA CORRENTE 00000010000000000000BRCMCSBDR0081200               0000000243                                            
0202LOTE PADRAO                   COMGAS      ON         CGAS3       010VISTA          0000000000438000000004380000000043170000000436300000004338+000620000000433700000004380000120000000000015000000000000654380000000000000000000000MOEDA CORRENTE 00000010000000000000BRCGASACNOR01400               0000000062                                            
0202LOTE PADRAO                   COMGAS      PNA        CGAS5       010VISTA          0000000000479000000004790000000046900000000471400000004778+001440000000469400000004778003580000000000808000000000038085540000000000000000000000MOEDA CORRENTE 00000010000000000000BRCGASACNPA31370               0000000144                                            
0202LOTE PADRAO                   CONST A LINDON         CALI3       010VISTA          0000000000000000000000000000000000000000000000000000000000/000000000001000000000000000000000000000000000000000000000000000000000000000000000000MOEDA CORRENTE 00000010000000000000BRCALIACNOR11300               0000000000                                            
0202LOTE PADRAO                   CONST A LINDPN         CALI4       010VISTA          0000000000000000000000000000000000000000000000000000000000/000000000000500000000025800000000000000000000000000000000000000000000000000000000000MOEDA CORRENTE 00000010000000000000BRCALIACNPR81340               0000000000                                            
0202LOTE PADRAO                   CONTAX      ON      NM CTAX3       010VISTA          0000000000091700000000966000000009160000000095400000000945+003270000000096000000000961000760000000000186000000000001775180000000000000000000000MOEDA CORRENTE 00000010000000000000BRCTAXACNOR31180               0000000327                                            
0202LOTE PADRAO                   COPASA      ON      NM CSMG3       010VISTA          0000000000413100000004159000000040760000000412700000004145+000600000000413000000004145017890000000005125000000000211519700000000000000000000000MOEDA CORRENTE 00000010000000000000BRCSMGACNOR51400               0000000060                                            
0202LOTE PADRAO                   COPEL       ON      N1 CPLE3       010VISTA          0000000000219500000002235000000021520000000220700000002212+000950000000221200000002213000820000000000302000000000006666330000000000000000000000MOEDA CORRENTE 00000010000000000000BRCPLEACNOR81330               0000000095                                            
0202LOTE PADRAO                   COPEL       PNB     N1.CPLE6       010VISTA          0000000000323100000003275000000031980000000323000000003225+000370000000322500000003231021680000000003952000000000127635390000000000000000000000MOEDA CORRENTE 00000010000000000000BRCPLEACNPB91300               0000000037                                            
0202LOTE PADRAO                   COPHILLIPS  DRN        COPH34      010VISTA          0000000000403600000004036000000040360000000403600000004036+000490000000000000000000000000010000000000003000000000000121080000000000000000000000MOEDA CORRENTE 00000010000000000000BRCOPHBDR0091200               0000000049                                            
0202LOTE PADRAO                   COR RIBEIRO PN         CORR4       010VISTA          0000000000000000000000000000000000000000000000000000000000/000000000000300000000000000000000000000000000000000000000000000000000000000000000000MOEDA CORRENTE 00000010000000000000BRCORRACNPR70180               0000000000                                            
0202LOTE PADRAO                   COSAN       ON      NM.CSAN3       010VISTA          0000000000410900000004139000000040630000000409700000004077-000120000000407700000004078045440000000011506000000000471381450000000000000000000000MOEDA CORRENTE 00000010000000000000BRCSANACNOR61160               0000000012                                            
0202LOTE PADRAO                   COSAN LOG   ON      NM RLOG3       010VISTA          0000000000059500000000613000000005850000000060700000000610+002520000000061000000000612008070000000007084000000000042967140000000000000000000000MOEDA CORRENTE 00000010000000000000BRRLOGACNOR41040               0000000252                                            
0202LOTE PADRAO                   COSAN LTD   DR3        CZLT33      010VISTA          0000000000276100000002795000000026900000000271300000002690-002350000000269000000002693002550000000000410000000000011123690000000000000000000000MOEDA CORRENTE 00000010000000000000BRCZLTBDR0091090               0000000235                                            
0202LOTE PADRAO                   COSERN      ON         CSRN3       010VISTA          0000000000150000000001550000000015000000000152500000001550+001300000000154000000001558000020000000000002000000000000030500000000000000000000000MOEDA CORRENTE 00000010000000000000BRCSRNACNOR01610               0000000130                                            
0202LOTE PADRAO                   COSERN      PNA        CSRN5       010VISTA          0000000000000000000000000000000000000000000000000000000000/000000000000145000000000000000000000000000000000000000000000000000000000000000000000MOEDA CORRENTE 00000010000000000000BRCSRNACNPA31610               0000000000                                            
0202LOTE PADRAO                   COSERN      PNB        CSRN6       010VISTA          0000000000000000000000000000000000000000000000000000000000/000000000000145000000001595000000000000000000000000000000000000000000000000000000000MOEDA CORRENTE 00000010000000000000BRCSRNACNPB11620               0000000000                                            
0202LOTE PADRAO                   COSTCO      DRN        COWC34      010VISTA          0000000001313100000013131000000131310000001313100000013131+001160000000000000000000000000010000000000006000000000000787860000000000000000000000MOEDA CORRENTE 00000010000000000000BRCOWCBDR0061030               0000000116                                            
0202LOTE PADRAO                   COTEMINAS   ON         CTNM3       010VISTA          0000000000000000000000000000000000000000000000000000000000/000000000000020000000000550000000000000000000000000000000000000000000000000000000000MOEDA CORRENTE 00000010000000000000BRCTNMACNOR91300               0000000000                                            
0202LOTE PADRAO                   COTEMINAS   PN         CTNM4       010VISTA          0000000000053900000000550000000005140000000054100000000549+008280000000052500000000549000180000000000097000000000000525120000000000000000000000MOEDA CORRENTE 00000010000000000000BRCTNMACNPR61290               0000000828                                            
0202LOTE PADRAO                   COTY INC    DRN        COTY34      010VISTA          0000000000308600000003086000000030860000000308600000003086+002180000000000000000000000000010000000000003000000000000092580000000000000000000000MOEDA CORRENTE 00000010000000000000BRCOTYBDR0061030               0000000218                                            
0202LOTE PADRAO                   CPFL ENERGIAON      NM.CPFE3       010VISTA          0000000000253800000002540000000025270000000253200000002531-000110000000253100000002535057350000000023093000000000584726810000000000000000000000MOEDA CORRENTE 00000010000000000000BRCPFEACNOR01270               0000000011                                            
0202LOTE PADRAO                   CPFL RENOVAVON      NM CPRE3       010VISTA          0000000000120500000001205000000011910000000119500000001195-000490000000119500000001204000050000000000006000000000000071680000000000000000000000MOEDA CORRENTE 00000010000000000000BRCPREACNOR51000               0000000049                                            
0202LOTE PADRAO                   CR2         ON      NM CRDE3       010VISTA          0000000000014000000000145000000001390000000014100000000145+004310000000013900000000145000120000000000050000000000000070430000000000000000000000MOEDA CORRENTE 00000010000000000000BRCRDEACNOR11090               0000000431                                            
0202LOTE PADRAO                   CREMER      ON         CREM3       010VISTA          0000000000080000000000800000000008000000000080000000000800=000000000000050400000000800000010000000000003000000000000024000000000000000000000000MOEDA CORRENTE 00000010000000000000BRCREMACNOR21750               0000000000                                            
0202LOTE PADRAO                   CRISTAL     PNA        CRPG5       010VISTA          0000000000055000000000553000000005500000000055200000000553+002210000000054200000000554000020000000000002000000000000011030000000000000000000000MOEDA CORRENTE 00000010000000000000BRCRPGACNPA31000               0000000221                                            
0202LOTE PADRAO                   CRISTAL     PNB        CRPG6       010VISTA          0000000000000000000000000000000000000000000000000000000000/000000000000054000000000560000000000000000000000000000000000000000000000000000000000MOEDA CORRENTE 00000010000000000000BRCRPGACNPB11000               0000000000                                            
0202LOTE PADRAO                   CSU CARDSYSTON      NM CARD3       010VISTA          0000000000065100000000675000000006510000000066900000000672+004340000000067100000000672012840000000008938000000000059832450000000000000000000000MOEDA CORRENTE 00000010000000000000BRCARDACNOR91090               0000000434                                            
0202LOTE PADRAO                   CVC BRASIL  ON      NM CVCB3       010VISTA          0000000000261000000002663000000026060000000263700000002634+000760000000262800000002634033860000000017519000000000461957680000000000000000000000MOEDA CORRENTE 00000010000000000000BRCVCBACNOR11060               0000000076                                            
0202LOTE PADRAO                   CVS HEALTH  DRN ED     CVSH34      010VISTA          0000000001275500000012755000000127550000001275500000012755-000610000000000000000000000000010000000000001000000000000127550000000000000000000000MOEDA CORRENTE 00000010000000000000BRCVSHBDR0081030               0000000061                                            
0202LOTE PADRAO                   CYRE COM-CCPON      NM CCPR3       010VISTA          0000000000101900000001019000000009800000000098100000000980=000000000000097000000000980000040000000000053000000000000519990000000000000000000000MOEDA CORRENTE 00000010000000000000BRCCPRACNOR91110               0000000000                                            
0202LOTE PADRAO                   CYRELA REALTON      NM.CYRE3       010VISTA          0000000000124500000001264000000012450000000125700000001255+000800000000125500000001258064940000000020017000000000251541590000000000000000000000MOEDA CORRENTE 00000010000000000000BRCYREACNOR71280               0000000080                                            
0202LOTE PADRAO                   DASA        ON         DASA3       010VISTA          0000000000202000000002020000000020200000000202000000002020-001410000000201800000002020000040000000000008000000000000161600000000000000000000000MOEDA CORRENTE 00000010000000000000BRDASAACNOR11120               0000000141                                            
0202LOTE PADRAO                   DELTA       DRN        DEAI34      010VISTA          0000000001626300000016263000000162630000001626300000016263+003080000000000000000000000000010000000000004000000000000650520000000000000000000000MOEDA CORRENTE 00000010000000000000BRDEAIBDR0081030               0000000308                                            
0202LOTE PADRAO                   DIMED       ON         PNVL3       010VISTA          0000000005885200000060499000000588520000006028500000060498+002020000005720000000060499000100000000000049000000000029539680000000000000000000000MOEDA CORRENTE 00000010000000000000BRPNVLACNOR91880               0000000202                                            
0202LOTE PADRAO                   DIMED       PN         PNVL4       010VISTA          0000000002390000000024090000000239000000002401700000024090+000370000000000000000024100000080000000000008000000000001921360000000000000000000000MOEDA CORRENTE 00000010000000000000BRPNVLACNPR61880               0000000037                                            
0202LOTE PADRAO                   DIRECIONAL  ON      NM DIRR3       010VISTA          0000000000056500000000599000000005610000000058100000000589+004240000000058800000000589050200000000015289000000000088788410000000000000000000000MOEDA CORRENTE 00000010000000000000BRDIRRACNOR01090               0000000424                                            
0202LOTE PADRAO                   DOHLER      ON         DOHL3       010VISTA          0000000000000000000000000000000000000000000000000000000000/000000000000050000000000850000000000000000000000000000000000000000000000000000000000MOEDA CORRENTE 00000010000000000000BRDOHLACNOR20550               0000000000                                            
0202LOTE PADRAO                   DOHLER      PN         DOHL4       010VISTA          0000000000042400000000480000000004240000000043700000000430+001410000000043000000000469000770000000000430000000000001878150000000000000000000000MOEDA CORRENTE 00000010000000000000BRDOHLACNPR90580               0000000141                                            
0202LOTE PADRAO                   DOW CHEMICALDRN        DOWB34      010VISTA          0000000001956500000019565000000195650000001956500000019565+007850000000000000000000000000010000000000001000000000000195650000000000000000000000MOEDA CORRENTE 00000010000000000000BRDOWBBDR0061130               0000000785                                            
0202LOTE PADRAO                   DTCOM-DIRECTON         DTCY3       010VISTA          0000000000036500000000375000000003650000000036600000000375-009630000000036500000000374000080000000000014000000000000051200000000000000000000000MOEDA CORRENTE 00000010000000000000BRDTCYACNOR51080               0000000963                                            
0202LOTE PADRAO                   DUFRY AG    DR3        DAGB33      010VISTA          0000000004423000000045871000000439280000004535500000045700+003900000004519900000045700007110000000000062810000000028487767900000000000000000000MOEDA CORRENTE 00000010000000000000BRDAGBBDR0081020               0000000390                                            
0202LOTE PADRAO                   DURATEX     ON      NM DTEX3       010VISTA          0000000000076200000000804000000007620000000079100000000804+005780000000080200000000804053030000000022592000000000178742800000000000000000000000MOEDA CORRENTE 00000010000000000000BRDTEXACNOR31240               0000000578                                            
0202LOTE PADRAO                   EBAY        DRN        EBAY34      010VISTA          0000000000508700000005087000000050870000000508700000005087+006750000000000000000000000000010000000000007000000000000356090000000000000000000000MOEDA CORRENTE 00000010000000000000BREBAYBDR0091010               0000000675                                            
0202LOTE PADRAO                   ECORODOVIAS ON      NM.ECOR3       010VISTA          0000000000087000000000887000000008530000000087200000000876+000680000000087600000000883107000000000046156000000000402523830000000000000000000000MOEDA CORRENTE 00000010000000000000BRECORACNOR81120               0000000068                                            
0202LOTE PADRAO                   ELEKEIROZ   ON         ELEK3       010VISTA          0000000000000000000000000000000000000000000000000000000000/000000000000036100000000492000000000000000000000000000000000000000000000000000000000MOEDA CORRENTE 00000010000000000000BRELEKACNOR51190               0000000000                                            
0202LOTE PADRAO                   ELEKEIROZ   PN         ELEK4       010VISTA          0000000000045000000000450000000004500000000045000000000450=000000000000045000000000515000020000000000003000000000000013500000000000000000000000MOEDA CORRENTE 00000010000000000000BRELEKACNPR21200               0000000000                                            
0202LOTE PADRAO                   ELEKTRO     ON         EKTR3       010VISTA          0000000000000000000000000000000000000000000000000000000000/000000000000140000000002495000000000000000000000000000000000000000000000000000000000MOEDA CORRENTE 00000010000000000000BREKTRACNOR01390               0000000000                                            
0202LOTE PADRAO                   ELEKTRO     PN         EKTR4       010VISTA          0000000000000000000000000000000000000000000000000000000000/000000000000170100000002050000000000000000000000000000000000000000000000000000000000MOEDA CORRENTE 00000010000000000000BREKTRACNPR71390               0000000000                                            
0202LOTE PADRAO                   ELETROBRAS  ON      N1.ELET3       010VISTA          0000000000225000000002298000000021960000000223800000002200-002350000000219900000002200062610000000012770000000000285742600000000000000000000000MOEDA CORRENTE 00000010000000000000BRELETACNOR61520               0000000235                                            
0202LOTE PADRAO                   ELETROBRAS  PNA     N1 ELET5       010VISTA          0000000000000000000000000000000000000000000000000000000000/000000000000250000000000000000000000000000000000000000000000000000000000000000000000MOEDA CORRENTE 00000010000000000000BRELETACNPA90680               0000000000                                            
0202LOTE PADRAO                   ELETROBRAS  PNB     N1 ELET6       010VISTA          0000000000263500000002665000000025940000000263300000002630+000260000000263000000002631032870000000009206000000000242385740000000000000000000000MOEDA CORRENTE 00000010000000000000BRELETACNPB70680               0000000026                                            
0202LOTE PADRAO                   ELETROPAR   ON         LIPR3       010VISTA          0000000000000000000000000000000000000000000000000000000000/000000000000000000000005600000000000000000000000000000000000000000000000000000000000MOEDA CORRENTE 00000010000000000000BRLIPRACNOR71130               0000000000                                            
0202LOTE PADRAO                   ELETROPAULO ON      N2 ELPL3       010VISTA          0000000000000000000000000000000000000000000000000000000000/000000000000102500000003000000000000000000000000000000000000000000000000000000000000MOEDA CORRENTE 00000010000000000000BRELPLACNOR91290               0000000000                                            
0202LOTE PADRAO                   ELETROPAULO PN      N2 ELPL4       010VISTA          0000000000122400000001260000000011990000000123000000001245+001710000000124400000001245029390000000021015000000000258454440000000000000000000000MOEDA CORRENTE 00000010000000000000BRELPLACNPR61200               0000000171                                            
0202LOTE PADRAO                   EMAE        PN         EMAE4       010VISTA          0000000000088500000000885000000008700000000088300000000885+000560000000086300000000885000060000000000090000000000000794250000000000000000000000MOEDA CORRENTE 00000010000000000000BREMAEACNPR11080               0000000056                                            
0202LOTE PADRAO                   EMBRAER     ON      NM.EMBR3       010VISTA          0000000000186700000001888000000018340000000186100000001839-001550000000183900000001840086410000000029251000000000544406280000000000000000000000MOEDA CORRENTE 00000010000000000000BREMBRACNOR41790               0000000155                                            
0202LOTE PADRAO                   ENCORPAR    ON         ECPR3       010VISTA          0000000000000000000000000000000000000000000000000000000000/000000000000100200000005000000000000000000000000000000000000000000000000000000000000MOEDA CORRENTE 00000010000000000000BRECPRACNOR51090               0000000000                                            
0202LOTE PADRAO                   ENCORPAR    PN         ECPR4       010VISTA          0000000000000000000000000000000000000000000000000000000000/000000000000100000000003900000000000000000000000000000000000000000000000000000000000MOEDA CORRENTE 00000010000000000000BRECPRACNPR21090               0000000000                                            
0202LOTE PADRAO                   ENERGIAS BR ON      NM.ENBR3       010VISTA          0000000000138100000001415000000013810000000140500000001407+002320000000140600000001407049480000000012004000000000168705460000000000000000000000MOEDA CORRENTE 00000010000000000000BRENBRACNOR21230               0000000232                                            
0202LOTE PADRAO                   ENERGISA    ON      N2 ENGI3       010VISTA          0000000000042000000000450000000004120000000044000000000438+004280000000043900000000500000180000000000040000000000000176150000000000000000000000MOEDA CORRENTE 00000010000000000000BRENGIACNOR01280               0000000428                                            
0202LOTE PADRAO                   ENERGISA    PN      N2 ENGI4       010VISTA          0000000000039000000000400000000003900000000039300000000400+003620000000037200000000400000040000000000008000000000000031400000000000000000000000MOEDA CORRENTE 00000010000000000000BRENGIACNPR71240               0000000362                                            
0202LOTE PADRAO                   ENERGISA    UNT     N2 ENGI11      010VISTA          0000000000203700000002037000000019800000000200500000002006+000090000000200600000002016007140000000003646000000000073102420000000000000000000000MOEDA CORRENTE 00000010000000000000BRENGICDAM161180               0000000009                                            
0202LOTE PADRAO                   ENERGISA MT ON         ENMT3       010VISTA          0000000000000000000000000000000000000000000000000000000000/000000000000061000000001700000000000000000000000000000000000000000000000000000000000MOEDA CORRENTE 00000010000000000000BRENMTACNOR51050               0000000000                                            
0202LOTE PADRAO                   ENERGISA MT PN         ENMT4       010VISTA          0000000000000000000000000000000000000000000000000000000000/000000000000083000000001826000000000000000000000000000000000000000000000000000000000MOEDA CORRENTE 00000010000000000000BRENMTACNPR21050               0000000000                                            
0202LOTE PADRAO                   ENEVA       ON      NM ENEV3       010VISTA          0000000000119400000001201000000011930000000120000000001197+000330000000119700000001206001060000000000591000000000007090590000000000000000000000MOEDA CORRENTE 00000010000000000000BRENEVACNOR81040               0000000033                                            
0202LOTE PADRAO                   ENGIE BRASILON      NM.EGIE3       010VISTA          0000000000356400000003667000000035610000000362300000003616+001770000000360800000003616043080000000007831000000000283715240000000000000000000000MOEDA CORRENTE 00000010000000000000BREGIEACNOR91020               0000000177                                            
0202LOTE PADRAO                   EQUATORIAL  ON      NM.EQTL3       010VISTA          0000000000583400000005915000000058100000000585900000005850+000550000000584700000005851051240000000010947000000000641330950000000000000000000000MOEDA CORRENTE 00000010000000000000BREQTLACNOR01200               0000000055                                            
0202LOTE PADRAO                   ESTACIO PARTON      NM.ESTC3       010VISTA          0000000000162300000001660000000016180000000164100000001637+001860000000163500000001637058640000000018015000000000295542830000000000000000000000MOEDA CORRENTE 00000010000000000000BRESTCACNOR51130               0000000186                                            
0202LOTE PADRAO                   ESTRELA     ON         ESTR3       010VISTA          0000000000000000000000000000000000000000000000000000000000/000000000000010000000000200000000000000000000000000000000000000000000000000000000000MOEDA CORRENTE 00000010000000000000BRESTRACNOR31420               0000000000                                            
0202LOTE PADRAO                   ESTRELA     PN         ESTR4       010VISTA          0000000000006600000000068000000000640000000006500000000065=000000000000006400000000065000740000000001557000000000001017200000000000000000000000MOEDA CORRENTE 00000010000000000000BRESTRACNPR01420               0000000000                                            
0202LOTE PADRAO                   ETERNIT     ON      NM ETER3       010VISTA          0000000000015200000000154000000001510000000015300000000152=000000000000015100000000152001830000000003501000000000005341740000000000000000000000MOEDA CORRENTE 00000010000000000000BRETERACNOR32300               0000000000                                            
0202LOTE PADRAO                   EUCATEX     PN      N1 EUCA4       010VISTA          0000000000030900000000309000000003000000000030600000000304-001930000000030400000000306000180000000000132000000000000404330000000000000000000000MOEDA CORRENTE 00000010000000000000BREUCAACNPR80350               0000000193                                            
0202LOTE PADRAO                   EVEN        ON      NM EVEN3       010VISTA          0000000000043600000000462000000004360000000045100000000458+005280000000045600000000458022530000000014317000000000064583950000000000000000000000MOEDA CORRENTE 00000010000000000000BREVENACNOR81110               0000000528                                            
0202LOTE PADRAO                   EXCELSIOR   PN         BAUH4       010VISTA          0000000000097700000001032000000009770000000099300000001032+005620000000093500000001033000030000000000007000000000000069530000000000000000000000MOEDA CORRENTE 00000010000000000000BRBAUHACNPR31110               0000000562                                            
0202LOTE PADRAO                   EXPRESCRIPTSDRN        ESRX34      010VISTA          0000000001115700000011157000000111570000001115700000011157+000500000000000000000000000000010000000000002000000000000223140000000000000000000000MOEDA CORRENTE 00000010000000000000BRESRXBDR0091000               0000000050                                            
0202LOTE PADRAO                   EXXON MOBIL DRN        EXXO34      010VISTA          0000000000677000000006828000000067700000000680500000006828+001450000000000000000000000000030000000000010000000000000680480000000000000000000000MOEDA CORRENTE 00000010000000000000BREXXOBDR0061250               0000000145                                            
0202LOTE PADRAO                   EZTEC       ON      NM EZTC3       010VISTA          0000000000186200000001889000000018320000000185200000001837=000000000000183700000001848031330000000006869000000000127244220000000000000000000000MOEDA CORRENTE 00000010000000000000BREZTCACNOR01090               0000000000                                            
0202LOTE PADRAO                   FACEBOOK    DRN        FBOK34      010VISTA          0000000002117500000021175000000211750000002117500000021175+002980000000000000000000000000010000000000003000000000000635250000000000000000000000MOEDA CORRENTE 00000010000000000000BRFBOKBDR0061000               0000000298                                            
0202LOTE PADRAO                   FER C ATLANTON <       VSPT3       010VISTA          0000000000000000000000000000000000000000000000000000000000/000000000000015100000000000000000000000000000000000000000000000000000000000000000000MOEDA CORRENTE 10000000000000000000BRVSPTACNOR11080               0000000000                                            
0202LOTE PADRAO                   FER HERINGERON      NM FHER3       010VISTA          0000000000024100000000249000000002400000000024500000000245+003370000000024200000000245004190000000003276000000000008034400000000000000000000000MOEDA CORRENTE 00000010000000000000BRFHERACNOR51030               0000000337                                            
0202LOTE PADRAO                   FERBASA     ON      N1 FESA3       010VISTA          0000000000095100000000960000000009280000000094400000000950-002160000000095000000000980000150000000000045000000000000424730000000000000000000000MOEDA CORRENTE 00000010000000000000BRFESAACNOR81560               0000000216                                            
0202LOTE PADRAO                   FERBASA     PN      N1 FESA4       010VISTA          0000000000085100000000885000000008400000000086900000000876+004160000000087400000000876007650000000002586000000000022464460000000000000000000000MOEDA CORRENTE 00000010000000000000BRFESAACNPR50520               0000000416                                            
0202LOTE PADRAO                   FIBRIA      ON      NM.FIBR3       010VISTA          0000000000324000000003270000000032100000000323500000003238+000870000000323800000003239075010000000014271000000000461693330000000000000000000000MOEDA CORRENTE 00000010000000000000BRFIBRACNOR91050               0000000087                                            
0202LOTE PADRAO                   FLEURY      ON      NM FLRY3       010VISTA          0000000000388900000003952000000038120000000386800000003873+000070000000386900000003873017950000000007083000000000273936480000000000000000000000MOEDA CORRENTE 00000010000000000000BRFLRYACNOR51160               0000000007                                            
0202LOTE PADRAO                   FORD MOTORS DRN ED     FDMO34      010VISTA          0000000000396300000003963000000039630000000396300000003963-001140000000000000000000000000010000000000003000000000000118890000000000000000000000MOEDA CORRENTE 00000010000000000000BRFDMOBDR0081200               0000000114                                            
0202LOTE PADRAO                   FORJA TAURUSON      N2 FJTA3       010VISTA          0000000000000000000000000000000000000000000000000000000000/000000000000016500000000175000000000000000000000000000000000000000000000000000000000MOEDA CORRENTE 00000010000000000000BRFJTAACNOR51550               0000000000                                            
0202LOTE PADRAO                   FORJA TAURUSPN      N2 FJTA4       010VISTA          0000000000018800000000190000000001850000000018800000000185=000000000000018500000000189000220000000000154000000000000289410000000000000000000000MOEDA CORRENTE 00000010000000000000BRFJTAACNPR21560               0000000000                                            
0202LOTE PADRAO                   FRAS-LE     ON      N1 FRAS3       010VISTA          0000000000045900000000487000000004590000000047200000000465+002190000000046500000000470002950000000001944000000000009181160000000000000000000000MOEDA CORRENTE 00000010000000000000BRFRASACNOR01410               0000000219                                            
0202LOTE PADRAO                   FREEPORT    DRN        FCXO34      010VISTA          0000000000506000000005060000000050600000000506000000005060+002780000000000000000000000000010000000000001000000000000050600000000000000000000000MOEDA CORRENTE 00000010000000000000BRFCXOBDR0071240               0000000278                                            
0202LOTE PADRAO                   GAFISA      ON      NM GFSA3       010VISTA          0000000000026000000000260000000002470000000025600000000254-000390000000025100000000254130410000000129968000000000332216770000000000000000000000MOEDA CORRENTE 00000010000000000000BRGFSAACNOR31110               0000000039                                            
0202LOTE PADRAO                   GAP         DRN        GPSI34      010VISTA          0000000000771900000007719000000077190000000771900000007719+002410000000000000000000000000010000000000001000000000000077190000000000000000000000MOEDA CORRENTE 00000010000000000000BRGPSIBDR0091030               0000000241                                            
0202LOTE PADRAO                   GE          DRN        GEOO34      010VISTA          0000000000958100000009581000000095810000000958100000009581+001010000000000000000000000000010000000000001000000000000095810000000000000000000000MOEDA CORRENTE 00000010000000000000BRGEOOBDR0001250               0000000101                                            
0202LOTE PADRAO                   GENERAL MOT DRN        GMCO34      010VISTA          0000000001195900000011959000000119590000001195900000011959-000330000000000000000000000000010000000000001000000000000119590000000000000000000000MOEDA CORRENTE 00000010000000000000BRGMCOBDR0081020               0000000033                                            
0202LOTE PADRAO                   GENERALSHOPPON      NM GSHP3       010VISTA          0000000000044000000000440000000004400000000044000000000440-001120000000043100000000440000020000000000003000000000000013200000000000000000000000MOEDA CORRENTE 00000010000000000000BRGSHPACNOR71000               0000000112                                            
0202LOTE PADRAO                   GER PARANAP ON         GEPA3       010VISTA          0000000000000000000000000000000000000000000000000000000000/000000000000300000000003500000000000000000000000000000000000000000000000000000000000MOEDA CORRENTE 00000010000000000000BRGEPAACNOR21360               0000000000                                            
0202LOTE PADRAO                   GER PARANAP PN         GEPA4       010VISTA          0000000000310000000003100000000031000000000310000000003100=000000000000300000000003190000080000000000061000000000001891000000000000000000000000MOEDA CORRENTE 00000010000000000000BRGEPAACNPR91430               0000000000                                            
0202LOTE PADRAO                   GERDAU      ON      N1 GGBR3       010VISTA          0000000000090000000000910000000008770000000088800000000887+000330000000088200000000887011060000000008865000000000078726540000000000000000000000MOEDA CORRENTE 00000010000000000000BRGGBRACNOR11620               0000000033                                            
0202LOTE PADRAO                   GERDAU      PN      N1.GGBR4       010VISTA          0000000000129500000001297000000012350000000125300000001249-000550000000124800000001249122010000000082072000000001028711060000000000000000000000MOEDA CORRENTE 00000010000000000000BRGGBRACNPR81620               0000000055                                            
0202LOTE PADRAO                   GERDAU MET  ON      N1 GOAU3       010VISTA          0000000000047300000000479000000004570000000046400000000460-001700000000046000000000461002170000000001292000000000005997290000000000000000000000MOEDA CORRENTE 00000010000000000000BRGOAUACNOR12410               0000000170                                            
0202LOTE PADRAO                   GERDAU MET  PN      N1.GOAU4       010VISTA          0000000000058200000000584000000005580000000056700000000560-001400000000055900000000560119910000000119085000000000675792290000000000000000000000MOEDA CORRENTE 00000010000000000000BRGOAUACNPR82420               0000000140                                            
0202LOTE PADRAO                   GILEAD      DRN        GILD34      010VISTA          0000000001140100000011401000000114010000001140100000011401+002490000000000000000000000000010000000000006000000000000684060000000000000000000000MOEDA CORRENTE 00000010000000000000BRGILDBDR0001030               0000000249                                            
0202LOTE PADRAO                   GOL         PN      N2 GOLL4       010VISTA          0000000000061000000000624000000005870000000060800000000588-002000000000058800000000589036010000000027948000000000169815920000000000000000000000MOEDA CORRENTE 00000010000000000000BRGOLLACNPR41230               0000000200                                            
0202LOTE PADRAO                   GOLDMANSACHSDRN        GSGI34      010VISTA          0000000000756900000007622000000075690000000759600000007622+001610000000000000000000000000020000000000008000000000000607640000000000000000000000MOEDA CORRENTE 00000010000000000000BRGSGIBDR0081250               0000000161                                            
0202LOTE PADRAO                   GP INVEST   DR3        GPIV33      010VISTA          0000000000069700000000700000000006930000000070000000000694-000280000000069400000000699000120000000005085000000000035593330000000000000000000000MOEDA CORRENTE 00000010000000000000BRGPIVBDR0031040               0000000028                                            
0202LOTE PADRAO                   GRAZZIOTIN  ON         CGRA3       010VISTA          0000000000175000000001800000000017500000000178500000001799-000050000000172100000001798000070000000000017000000000000303400000000000000000000000MOEDA CORRENTE 00000010000000000000BRCGRAACNOR20670               0000000005                                            
0202LOTE PADRAO                   GRAZZIOTIN  PN         CGRA4       010VISTA          0000000000174500000001745000000017000000000172200000001715+001470000000171500000001725000090000000000017000000000000292710000000000000000000000MOEDA CORRENTE 00000010000000000000BRCGRAACNPR90670               0000000147                                            
0202LOTE PADRAO                   GRENDENE    ON      NM GRND3       010VISTA          0000000000182400000001879000000018240000000186500000001867+002350000000186500000001867011640000000003367000000000062792350000000000000000000000MOEDA CORRENTE 00000010000000000000BRGRNDACNOR31440               0000000235                                            
0202LOTE PADRAO                   GUARARAPES  ON         GUAR3       010VISTA          0000000000696700000007101000000068220000000694100000006822-001400000000680000000006945001190000000000194000000000013464800000000000000000000000MOEDA CORRENTE 00000010000000000000BRGUARACNOR41510               0000000140                                            
0202LOTE PADRAO                   GUARARAPES  PN         GUAR4       010VISTA          0000000000610300000006239000000061030000000618800000006144+000670000000610200000006186000430000000000053000000000003279450000000000000000000000MOEDA CORRENTE 00000010000000000000BRGUARACNPR11510               0000000067                                            
0202LOTE PADRAO                   HABITASUL   PNA        HBTS5       010VISTA          0000000000000000000000000000000000000000000000000000000000/000000000000067100000000896000000000000000000000000000000000000000000000000000000000MOEDA CORRENTE 00000010000000000000BRHBTSACNPA31200               0000000000                                            
0202LOTE PADRAO                   HAGA S/A    ON         HAGA3       010VISTA          0000000000000000000000000000000000000000000000000000000000/000000000000026000000000320000000000000000000000000000000000000000000000000000000000MOEDA CORRENTE 00000010000000000000BRHAGAACNOR71030               0000000000                                            
0202LOTE PADRAO                   HAGA S/A    PN         HAGA4       010VISTA          0000000000030200000000314000000003020000000031000000000312-000630000000030500000000312000060000000000027000000000000083740000000000000000000000MOEDA CORRENTE 00000010000000000000BRHAGAACNPR41030               0000000063                                            
0202LOTE PADRAO                   HELBOR      ON      NM HBOR3       010VISTA          0000000000022000000000223000000002150000000021900000000217=000000000000021700000000219018280000000016784000000000036781660000000000000000000000MOEDA CORRENTE 00000010000000000000BRHBORACNOR31120               0000000000                                            
0202LOTE PADRAO                   HERCULES    ON         HETA3       010VISTA          0000000000000000000000000000000000000000000000000000000000/000000000000030000000000000000000000000000000000000000000000000000000000000000000000MOEDA CORRENTE 00000010000000000000BRHETAACNOR21360               0000000000                                            
0202LOTE PADRAO                   HERCULES    PN         HETA4       010VISTA          0000000000043500000000449000000004350000000044000000000435+004560000000042600000000445000050000000000005000000000000021990000000000000000000000MOEDA CORRENTE 00000010000000000000BRHETAACNPR91360               0000000456                                            
0202LOTE PADRAO                   HERSHEY CO  DRN        HSHY34      010VISTA          0000000000677100000006771000000067710000000677100000006771-000520000000000000000000000000010000000000003000000000000203130000000000000000000000MOEDA CORRENTE 00000010000000000000BRHSHYBDR0011060               0000000052                                            
0202LOTE PADRAO                   HOME DEPOT  DRN        HOME34      010VISTA          0000000002201400000022181000000220140000002216000000022181+001700000000000000000000000000020000000000008000000000001772810000000000000000000000MOEDA CORRENTE 00000010000000000000BRHOMEBDR0021190               0000000170                                            
