00ROPC9999BOVESPA 99992017012820170127                                                                                                                          
01GGBR        PN      N1201702201058000070GGBRB48     000000010000000001891000000000000000000000000318400000000000000000000000000318400000000300000021611ACN    
01GGBR        PN      N1201702201074000070GGBRB49     000000010000000001991000000000000000000000000301000000000000000000000000000301000000000200000021611ACN    
01GGBR        PN      N1201702200663000070GGBRB73     000000010000000001316000000000177100000000000001400000000000041900000000000220400000000400000181622ACN    
01GGBR  FM    PN      N1201702200930000070GGBRB41     000000010000000001191000000000144200000000000000700000000000076800000000000221700000001100000241611ACN    
01GGBR  FM    PN      N1201702200949000070GGBRB12     000000010000000001241000000000276000000000000001800000000000200600000000000478400000003800000791611ACN    
01GGBR  FM    PN      N1201702200531000070GGBRB42     000000010000000001291000000000072600000000000146500000000000040900000000000260000000002000000411611ACN    
01GGBR  FM    PN      N1201702200957000070GGBRB13     000000010000000001341000000000224800000000000646200000000002090900000000002961900000017100000781611ACN    
01GGBR  FM    PN      N1201702200965000070GGBRB43     000000010000000001391000000000078900000000000203100000000000184600000000000466600000002400000361611ACN    
01GOAU        PN      N1201702201228000070GOAUB43     000000010000000000430000000000000000000000000000000000000000000100000000000000100000000100000012421ACN    
01GOAU        PN      N1201702201147000070GOAUB45     000000010000000000450000000000000000000000000000100000000001999900000000002000000000000100000032421ACN    
01GOAU        PN      N1201702201848000070GOAUB58     000000010000000000580000000000002000000000000041900000000000054400000000000098300000000200000022421ACN    
01GOAU        PN      N1201702201953000070GOAUB6      000000010000000000600000000000030000000000000001000000000000021100000000000052100000001000000152421ACN    
01GOAU        PN      N1201702201961000070GOAUB62     000000010000000000620000000000001000000000000000000000000000000000000000000001000000000100000012421ACN    
01GOAU        PN      N1201702201970000070GOAUB64     000000010000000000640000000000001000000000000000000000000000000000000000000001000000000100000012421ACN    
01GOAU        PN      N1201702201988000070GOAUB66     000000010000000000660000000000000000000000000000000000000000001000000000000001000000000100000012421ACN    
01GOAU        PN      N1201702202003000070GOAUB68     000000010000000000680000000000004400000000000000000000000000007000000000000011400000000800000072421ACN    
01GOLL        PN      N2201702200264000070GOLLB48     000000010000000000480000000000000000000000000045000000000000000000000000000045000000000200000011231ACN    
01GOLL        PN      N2201702200272000070GOLLB52     000000010000000000520000000000000000000000000045000000000000045000000000000090000000000100000021231ACN    
01GRND        ON      NM201702200019000070GRNDB70     000000010000000002075000000000000300000000000000000000000000054000000000000054300000000400000031442ACN    
01HYPE        ON      NM201702200841000070HYPEB26     000000010000000002600000000000001000000000000000000000000000083500000000000084500000000200000051081ACN    
01HYPE        ON      NM201702200183000070HYPEB28     000000010000000002800000000000000000000000000050000000000000000000000000000050000000000100000011081ACN    
01HYPE        ON      NM201702201430000070HYPEB68     000000010000000002875000000000000000000000000000000000000000118100000000000118100000000100000031082ACN    
01HYPE        ON      NM201702200930000070HYPEB36     000000010000000003600000000000000000000000000000100000000000000000000000000000100000000100000011081ACN    
01IGTA        ON      NM201702200329000070IGTAB57     000000010000000002750000000000000000000000000000000000000000017000000000000017000000000100000011181ACN    
01IGTA        ON      NM201702200280000070IGTAB80     000000010000000003025000000000000000000000000000000000000000157400000000000157400000000200000181182ACN    
01ITSA        PN      N1201702200698000070ITSAB33     000000010000000000523000000000000000000000000033000000000000000000000000000033000000000100000013662ACN    
01ITSA        PN      N1201702200825000070ITSAB68     000000010000000000569000000000000000000000000181500000000000000000000000000181500000000100000013661ACN    
01ITSA        PN      N1201702200779000070ITSAB7      000000010000000000587000000000000000000000000055000000000000000000000000000055000000000100000013661ACN    
01ITSA        PN      N1201702200701000070ITSAB43     000000010000000000614000000000000000000000000066000000000000000000000000000066000000000100000013662ACN    
01ITSA        PN      N1201702200833000070ITSAB78     000000010000000000660000000000000000000000000181500000000000000000000000000181500000000100000013661ACN    
01ITSA        PN      N1201702200574000070ITSAB16     000000010000000000678000000000000000000000000055000000000000154600000000000209600000000200000023661ACN    
01ITSA        PN      N1201702200485000070ITSAB28     000000010000000000705000000000154000000000000000000000000000812400000000000966400000000300000053662ACN    
01ITSA        PN      N1201702200973000070ITSAB88     000000010000000000751000000000000000000000000161000000000001921000000000002082000000000200000043661ACN    
01ITSA        PN      N1201702200868000070ITSAB71     000000010000000000688000000000000000000000000000000000000000101600000000000101600000000100000013722ACN    
01ITSA        PN      N1201702200191000070ITSAB74     000000010000000000725000000000001300000000000000000000000000345300000000000346600000000200000033722ACN    
01ITSA        PN      N1201702200906000070ITSAB81     000000010000000000791000000000002900000000000000000000000000000600000000000003500000000100000073721ACN    
01ITSA        PN      N1201702200914000070ITSAB83     000000010000000000811000000000005900000000000000000000000000003000000000000008900000000200000053721ACN    
01ITSA        PN      N1201702200019000070ITSAB85     000000010000000000831000000000030800000000000000000000000000036500000000000067300000000100000083721ACN    
01ITSA        PN      N1201702200922000070ITSAB87     000000010000000000851000000000123600000000000000000000000003001100000000003124700000000600000253721ACN    
01ITSA        PN      N1201702200930000070ITSAB89     000000010000000000871000000000140200000000000000000000000000022700000000000162900000000400000163721ACN    
01ITSA        PN      N1201702200566000070ITSAB9      000000010000000000881000000000054900000000000250000000000000055000000000000359900000000700000203722ACN    
01ITSA        PN      N1201702200949000070ITSAB91     000000010000000000891000000000098400000000000005000000000000096400000000000199800000000800000283721ACN    
01ITSA        PN      N1201702200850000070ITSAB92     000000010000000000901000000000091000000000000000000000000000098200000000000189200000000600000173722ACN    
01ITSA        PN      N1201702200264000070ITSAB93     000000010000000000911000000000072500000000000147400000000000254300000000000474200000001900000513721ACN    
01VALE        PNA     N1201702200620000070VALEB51     000000010000000002198000000000125600000000000107700000000000169700000000000403000000000900000621931ACN    
01VALE        PNA     N1201702200639000070VALEB66     000000010000000002698000000000269300000000000437000000000001692300000000002398600000005300001501931ACN    
01VALE        PNA     N1201702201090000070VALEB27     000000010000000002748000000000189500000000000629000000000000474400000000001292900000002500001361931ACN    
01VALE        PNA     N1201702200647000070VALEB57     000000010000000002798000000000290900000000000576100000000004547000000000005414000000004800001961931ACN    
01VALE        PNA     N1201702201104000070VALEB28     000000010000000002848000000000312100000000000498800000000000382700000000001193600000004800001521931ACN    
01VALE        PNA     N1201702200310000070VALEB89     000000010000000002923000000000054200000000001300300000000000191600000000001546100000001100000551932ACN    
01VALE        PNA     N1201702201112000070VALEB99     000000010000000002948000000000062400000000000766200000000000228600000000001057200000002500000801931ACN    
01VALE        PNA     N1201702201589000070VALEB69     000000010000000002973000000000000100000000000139700000000000011600000000000151400000000900000091932ACN    
01VALE        PNA     N1201702200051000070VALEB59     000000010000000002998000000000691700000000001262400000000001142800000000003096900000007700002171931ACN    
01VALE        PNA     N1201702201597000070VALEB33     000000010000000003023000000000002900000000000574600000000000001800000000000579300000002100000111932ACN    
01VALE        PNA     N1201702201600000070VALEB30     000000010000000003048000000000368800000000000796100000000000217700000000001382600000009000001561931ACN    
01VALE        PNA     N1201702201619000070VALEB34     000000010000000003073000000000000300000000000107700000000000001800000000000109800000001200000131932ACN    
01VALE        PNA     N1201702200060000070VALEB60     000000010000000003098000000000589100000000002059300000000000718500000000003366900000011800002231931ACN    
01VALE        PNA     N1201702201627000070VALEB35     000000010000000003123000000000003200000000000090300000000000061600000000000155100000001300000161932ACN    
01VALE        PNA     N1201702201635000070VALEB31     000000010000000003148000000000066400000000000620900000000000255900000000000943200000008100001121931ACN    
01VALE        PNA     N1201702200329000070VALEB11     000000010000000003173000000000038600000000000139200000000000029200000000000207000000001900000351932ACN    
01VALE        PNA     N1201702200078000070VALEB1      000000010000000003198000000000423100000000001616200000000000826900000000002866200000013800002041931ACN    
01VALE        PNA     N1201702201767000070VALEB36     000000010000000003248000000000053900000000000555700000000000623500000000001233100000006800001001931ACN    
01VALE        PNA     N1201702200086000070VALEB22     000000010000000003298000000000247900000000004135200000000000480800000000004863900000023200001811931ACN    
01VALE        PNA     N1201702202038000070VALEB39     000000010000000003348000000000006300000000000660200000000000159700000000000826200000003500000281931ACN    
01VALE        PNA     N1201702200094000070VALEB3      000000010000000003398000000000325400000000003013100000000000459100000000003797600000025100001651931ACN    
01VALE        PNA     N1201702202046000070VALEB42     000000010000000003448000000000043400000000000236600000000000071800000000000351800000003600000301931ACN    
01VALE        PNA     N1201702200108000070VALEB4      000000010000000003498000000000245500000000002413900000000001714900000000004374300000027400001501931ACN    
01VALE        PNA     N1201702202054000070VALEB43     000000010000000003548000000000018500000000000167600000000000015300000000000201400000003100000221931ACN    
01VALE        PNA     N1201702200116000070VALEB5      000000010000000003598000000000165800000000004374800000000000695300000000005235900000030900001341931ACN    
01VALE        PNA     N1201702202062000070VALEB44     000000010000000003648000000000030400000000000260400000000000005500000000000296300000005100000211931ACN    
01VALE        PNA     N1201702200124000070VALEB6      000000010000000003698000000000069100000000002515800000000002553800000000005138700000044800001221931ACN    
01VALE        PNA     N1201702202070000070VALEB46     000000010000000003748000000000008700000000000353800000000000013200000000000375700000006600000221931ACN    
01VALE        PNA     N1201702202089000070VALEB47     000000010000000003798000000000020200000000002395900000000000806200000000003222300000024900000741931ACN    
01VALE        PNA     N1201702202402000070VALEB48     000000010000000003898000000000000000000000000268400000000000119500000000000387900000001200000091931ACN    
01VALE        PNA     N1201702202410000070VALEB58     000000010000000003998000000000000000000000001456700000000000254100000000001710800000001400000141931ACN    
01VALE        PNA     N1201702202429000070VALEB61     000000010000000004098000000000001600000000000316500000000000879500000000001197600000003300000131931ACN    
01VIVT        PN        201702200825000070VIVTB87     000000010000000004710000000000004000000000000000000000000000029700000000000033700000000300000071312ACN    
01VIVT        PN        201702200485000070VIVTB11     000000010000000004135000000000000000000000000005600000000000000000000000000005600000000100000011321ACN    
01VIVT        PN        201702200493000070VIVTB12     000000010000000004235000000000000000000000000002700000000000000100000000000002800000000100000021321ACN    
01VIVT        PN        201702200655000070VIVTB43     000000010000000004285000000000000000000000000021600000000000000000000000000021600000000100000011321ACN    
01VIVT        PN        201702200388000070VIVTB13     000000010000000004335000000000004000000000000001400000000000000000000000000005400000000200000021321ACN    
01VIVT        PN        201702200663000070VIVTB44     000000010000000004385000000000000900000000000021500000000000005000000000000027400000000100000041321ACN    
01VIVT        PN        201702200507000070VIVTB14     000000010000000004435000000000000000000000000000000000000000001000000000000001000000000100000011321ACN    
01VIVT        PN        201702200515000070VIVTB15     000000010000000004535000000000012300000000000000000000000000001900000000000014200000000300000061321ACN    
01VIVT        PN        201702200523000070VIVTB16     000000010000000004635000000000005200000000000000000000000000000000000000000005200000000100000031321ACN    
01VIVT        PN        201702200531000070VIVTB17     000000010000000004735000000000005500000000000000000000000000041800000000000047300000000100000091321ACN    
01VIVT        PN        201702200450000070VIVTB88     000000010000000004810000000000000500000000000000000000000000105200000000000105700000000300000211322ACN    
01VIVT        PN        201702200434000070VIVTB89     000000010000000004910000000000000000000000000000000000000000350000000000000350000000000100000041322ACN    
01VIVT        PN        201702200728000070VIVTB19     000000010000000004935000000000052600000000000000000000000000000000000000000052600000000100000031321ACN    
01ITSA        PN      N1201703200574000070ITSAC82     000000010000000000801000000000000000000000000252300000000000000000000000000252300000000100000013721ACN    
01ITSA        PN      N1201703200582000070ITSAC9      000000010000000000881000000000005000000000000000000000000000360000000000000365000000000200000023721ACN    
01ITSA        PN      N1201703200892000070ITSAC94     000000010000000000921000000000060700000000000000000000000000141600000000000202300000000400000083721ACN    
01ITSA        PN      N1201703200590000070ITSAC10     000000010000000000979000000000013200000000000000000000000000030300000000000043500000000800000043721ACN    
01ITSA        PN      N1201703200051000070ITSAC92     000000010000000000901000000000000800000000000000000000000000005000000000000005800000000200000023731ACN    
01ITSA        PN      N1201703200060000070ITSAC98     000000010000000000959000000000002000000000000000000000000000001000000000000003000000000100000023731ACN    
01ITSA        PN      N1201703200078000070ITSAC1      000000010000000001029000000000015500000000000000000000000000540000000000000555500000000600000033731ACN    
01ITUB        PN      N1201703200078000070ITUBC85     000000010000000002748000000000000000000000000000000000000000608280000000000608280000000200000021901ACN    
01ITUB        PN      N1201703200094000070ITUBC66     000000010000000002831000000000000220000000000000000000000000000000000000000000220000000100000011901ACN    
01ITUB        PN      N1201703200272000070ITUBC52     000000010000000002812000000000000000000000000000000000000000022100000000000022100000000200000052022ACN    
01ITUB        PN      N1201703200132000070ITUBC73     000000010000000002899000000000406620000000000078100000000000375520000000000860240000000300000202022ACN    
01ITUB        PN      N1201703200248000070ITUBC94     000000010000000002990000000000265950000000000000000000000000881140000000001147090000000400000082022ACN    
01ITUB        ON      N1201703200086000070ITUBC90     000000010000000002556000000000000000000000000000000000000000013200000000000013200000000100000012041ACN    
01ITUB        ON      N1201703200051000070ITUBC69     000000010000000002579000000000000000000000000000110000000000000000000000000000110000000100000012042ACN    
01ITUB        ON      N1201703200132000070ITUBC95     000000010000000002806000000000000000000000000000000000000000000110000000000000110000000100000012042ACN    
01ITUB        PN      N1201703200051000070ITUBC53     000000010000000002853000000000719510000000000000000000000000079640000000000799150000000100000202042ACN    
01ITUB        ON      N1201703200094000070ITUBC55     000000010000000002897000000000000000000000000000000000000000618640000000000618640000000100000012042ACN    
01ITUB        PN      N1201703200124000070ITUBC79     000000010000000002944000000002055840000000000106700000000000559960000000002722500000000100000132042ACN    
01ITUB        PN      N1201703200191000070ITUBC34     000000010000000003081000000000036300000000002520340000000000000000000000002556640000000300000042042ACN    
01ITUB        PN      N1201703200990000070ITUBC76     000000010000000003262000000000000000000000000005000000000000008580000000000013580000000300000032042ACN    
01ITUB        PN      N1201703200230000070ITUBC97     000000010000000003308000000000000000000000000168330000000000020160000000000188490000000300000272042ACN    
01ITUB        PN      N1201703200272000070ITUBC44     000000010000000003353000000000604320000000000300050000000000006100000000000910470000000300000092042ACN    
01ITUB        PN      N1201703200574000070ITUBC72     000000010000000003399000000000061720000000000002000000000000000200000000000063920000000300000062042ACN    
01ITUB        PN      N1201703200531000070ITUBC92     000000010000000003467000000000050000000000000000000000000000342100000000000392100000000200000022041ACN    
01ITUB        PN      N1201703200450000070ITUBC62     000000010000000003626000000000023000000000000009990000000000005130000000000038120000000700000102041ACN    
01ITUB        PN      N1201703200183000070ITUBC1      000000010000000000899000000000004200000000000000000000000003327500000000003331700000000300000032082ACN    
01ITUB        PN      N1201703200213000070ITUBC35     000000010000000003149000000000273900000000000025630000000000000000000000000299530000002800000022111ACN    
01ITUB        PN      N1201703200272000070ITUBC40     000000010000000003603000000000000210000000000000000000000000003090000000000003300000000500000072111ACN    
01ITUB        PN      N1201703200264000070ITUBC14     000000010000000003449000000000000000000000000000000000000000036300000000000036300000000100000012132ACN    
01ITUB        PN      N1201703200299000070ITUBC3      000000010000000003492000000000000500000000000000000000000001200200000000001200700000000200000082132ACN    
01ITUB        PN      N1201703200272000070ITUBC20     000000010000000003960000000000006000000000000001500000000000113100000000000120600000000800000122132ACN    
01ITUB        PN      N1201703200302000070ITUBC22     000000010000000004060000000000005500000000000200000000000001165300000000001370800000000700000242132ACN    
01ITUB        PN      N1201703200191000070ITUBC65     000000010000000002532000000000000000000000000000000000000000253000000000000253000000000100000012142ACN    
01ITUB        PN      N1201703200205000070ITUBC80     000000010000000003040000000000157200000000000000000000000000000000000000000157200000000200000012142ACN    
01ITUB        PN      N1201703200183000070ITUBC5      000000010000000003517000000000001700000000000000000000000000008600000000000010300000000200000032141ACN    
01ITUB        PN      N1201703200108000070ITUBC33     000000010000000003287000000000000000000000000001700000000000001700000000000003400000000100000012151ACN    
01ITUB        PN      N1201703200124000070ITUBC4      000000010000000003378000000000004300000000000005000000000000000900000000000010200000000400000072151ACN    
01ITUB        PN      N1201703200280000070ITUBC8      000000010000000003424000000000000300000000000000000000000000099200000000000099500000000300000032151ACN    
01ITUB        PN      N1201703200051000070ITUBC96     000000010000000003651000000000087500000000000600000000000000000000000000000687500000000500000032152ACN    
01ITUB        PN      N1201703200159000070ITUBC7      000000010000000003726000000000002000000000000015000000000000098900000000000115900000000400000102151ACN    
01ITUB        PN      N1201703200167000070ITUBC38     000000010000000003835000000000006400000000000000000000000000043200000000000049600000000200000112151ACN    
01ITUB        PN      N1201703200183000070ITUBC39     000000010000000003935000000000000200000000000162050000000000045050000000000207300000000500000102151ACN    
01ITUB        PN      N1201703200205000070ITUBC11     000000010000000004035000000000000000000000000001000000000000128900000000000129900000000300000032151ACN    
01BRFS        ON      NM201704171031000070BRFSD6      000000010000000006033000000000000000000000000150000000000000100000000000000250000000000300000021161ACN    
01BRFS        ON      NM201704170663000070BRFSD81     000000010000000006083000000000000000000000000001100000000000000000000000000001100000000100000021162ACN    
01BRFS        ON      NM201704170655000070BRFSD7      000000010000000006233000000000000000000000000000100000000000200000000000000200100000000200000021161ACN    
01BRFS        ON      NM201704172810000070BRFSD15     000000010000000004583000000000000300000000000000000000000000000100000000000000400000000200000021171ACN    
01BRFS        ON      NM201704172828000070BRFSD46     000000010000000004633000000000000000000000000000000000000000070000000000000070000000000100000011171ACN    
01BRFS        ON      NM201704172836000070BRFSD16     000000010000000004683000000000001100000000000000000000000000000200000000000001300000000100000031171ACN    
01BRFS        ON      NM201704172844000070BRFSD47     000000010000000004733000000000000000000000000000100000000000000900000000000001000000000100000011171ACN    
01BRFS        ON      NM201704171872000070BRFSD27     000000010000000004783000000000000600000000000000000000000000000000000000000000600000000100000011171ACN    
01BRFS        ON      NM201704172852000070BRFSD48     000000010000000004833000000000000600000000000000000000000000000100000000000000700000000100000011171ACN    
01BRFS        ON      NM201704172860000070BRFSD49     000000010000000004933000000000000000000000000000000000000000000400000000000000400000000200000011171ACN    
01BRFS        ON      NM201704171880000070BRFSD57     000000010000000005733000000000000000000000000000100000000000001900000000000002000000000100000011171ACN    
01BRFS        ON      NM201704171635000070BRFSD61     000000010000000006133000000000000000000000000000000000000000114800000000000114800000000100000011171ACN    
01BRFS        ON      NM201704171570000070BRFSD21     000000010000000006183000000000000000000000000000000000000000100000000000000100000000000100000011172ACN    
01BRIN        ON      NM201704170310000070BRIND20     000000010000000002000000000000000000000000000000000000000000035000000000000035000000000100000011111ACN    
01BRIN        ON      NM201704170329000070BRIND60     000000010000000002025000000000000000000000000000000000000000050000000000000050000000000100000011112ACN    
01BRML        ON      NM201704173530000070BRMLD51     000000010000000001654000000000000000000000000000000000000000023400000000000023400000000100000011081ACN    
01BRML        ON      NM201704172500000070BRMLD14     000000010000000001419000000000000000000000000000000000000001100600000000001100600000000300000091091ACN    
01BRML        ON      NM201704172852000070BRMLD74     000000010000000001444000000000000000000000000000000000000000413000000000000413000000000200000021092ACN    
01BRML        ON      NM201704172518000070BRMLD18     000000010000000001804000000000000000000000000500000000000000500000000000001000000000000100000021091ACN    
01BRPR        ON      NM201704170272000070BRPRD85     000000010000000000850000000000000000000000000000000000000000240000000000000240000000000100000041162ACN    
01BRSR        PNB     N1201704178001000070BRSRD77     000000010000000000766000000000020000000000000000000000000000000000000000000020000000000100000011482ACN    
01BVMF        ON      NM201704171597000070BVMFD59     000000010000000001882000000000000000000000000020000000000000000000000000000020000000000100000011362ACN    
01BVMF        ON      NM201704172046000070BVMFD50     000000010000000002007000000000000000000000000100000000000000000100000000000100100000000100000021361ACN    
01BVMF        ON      NM201704171376000070BVMFD54     000000010000000002457000000000000000000000000000000000000000150000000000000150000000000100000011371ACN    
01BVMF        ON      NM201704170051000070BVMFD78     000000010000000001832000000000000000000000004000000000000000016900000000004016900000000200000021392ACN    
01BVMF        ON      NM201704170060000070BVMFD81     000000010000000002082000000000000000000000004000000000000002030000000000006030000000000200000021392ACN    
01BVMF        ON      NM201704170230000070BVMFD18     000000010000000001807000000000000000000000000000000000000000249900000000000249900000001900000041401ACN    
01BVMF        ON      NM201704170248000070BVMFD48     000000010000000001857000000000000000000000000000000000000000085300000000000085300000000100000031401ACN    
01BVMF        ON      NM201704170256000070BVMFD19     000000010000000001907000000000001000000000000000000000000000000000000000000001000000000100000011401ACN    
01CCRO        ON      NM201704170310000070CCROD67     000000010000000001683000000000044000000000000000000000000000075000000000000119000000000100000021292ACN    
01CCRO        ON      NM201704170060000070CCROD17     000000010000000001708000000000002800000000000000000000000000500000000000000502800000000100000051301ACN    
01CIEL        ON      NM201704172429000070CIELD73     000000010000000002692000000000000000000000000002000000000000000000000000000002000000000100000011181ACN    
01CIEL        ON      NM201704172437000070CIELD93     000000010000000003588000000000000000000000000010000000000000007000000000000017000000000500000031182ACN    
01CIEL        ON      NM201704170329000070CIELD96     000000010000000002879000000000000000000000000003000000000000051950000000000054950000000300000061192ACN    
01CIEL        ON      NM201704171112000070CIELD85     000000010000000002546000000000000000000000000002000000000000000100000000000002100000000200000021212ACN    
01CIEL        ON      NM201704171163000070CIELD28     000000010000000002792000000000000000000000000002000000000000000000000000000002000000000100000011211ACN    
01CIEL        ON      NM201704171120000070CIELD30     000000010000000003004000000000000000000000000050000000000000165000000000000215000000000200000041211ACN    
01CIEL        ON      NM201704171139000070CIELD90     000000010000000003079000000000000000000000000007200000000000000000000000000007200000000100000021212ACN    
01CIEL        ON      NM201704171104000070CIELD2      000000010000000003254000000000000000000000000000000000000000120000000000000120000000000100000011211ACN    
01CIEL        ON      NM201704170426000070CIELD84     000000010000000002496000000000000000000000000004000000000000000000000000000004000000000300000011222ACN    
01CIEL        ON      NM201704170191000070CIELD25     000000010000000002521000000000000100000000000000000000000000000000000000000000100000000100000011221ACN    
01CIEL        ON      NM201704170035000070CIELD65     000000010000000002596000000000000000000000000052000000000000000100000000000052100000000300000031222ACN    
01CIEL        ON      NM201704170213000070CIELD26     000000010000000002621000000000003600000000000002000000000000002500000000000008100000000200000051221ACN    
01CIEL        ON      NM201704170531000070CIELD86     000000010000000002646000000000000000000000000004000000000000004000000000000008000000000100000031222ACN    
01ITUB        PN      N1201705150191000070ITUBE9      000000010000000002852000000000002200000000000000000000000000000000000000000002200000000100000012062ACN    
01ITUB        PN      N1201705150159000070ITUBE48     000000010000000003442000000000004950000000000000000000000000000000000000000004950000000100000012062ACN    
01ITUB        PN      N1201705150167000070ITUBE49     000000010000000003488000000000017600000000000000000000000000000000000000000017600000000100000012062ACN    
01ITUB        PN      N1201705150124000070ITUBE39     000000010000000003511000000000000000000000000000000000000000016060000000000016060000000100000012061ACN    
01ITUB        ON      N1201705150019000070ITUBE81     000000010000000002762000000000055000000000000000000000000000000000000000000055000000000100000012082ACN    
01ITUB        PN      N1201705150132000070ITUBE60     000000010000000000942000000000000000000000000000000000000003327500000000003327500000000100000012112ACN    
01ITUB        PN      N1201705150361000070ITUBE61     000000010000000002783000000000000000000000000000000000000000017270000000000017270000000100000012121ACN    
01ITUB        PN      N1201705150256000070ITUBE37     000000010000000003704000000000000000000000000000000000000000030500000000000030500000000100000012141ACN    
01ITUB        PN      N1201705150272000070ITUBE57     000000010000000002742000000000000000000000000000000000000001190700000000001190700000000300000082151ACN    
01ITUB        PN      N1201705150019000070ITUBE91     000000010000000003088000000000171600000000000000000000000000000100000000000171700000000200000022152ACN    
01ITUB        PN      N1201705150248000070ITUBE97     000000010000000003729000000000000000000000000000000000000000660000000000000660000000000100000012152ACN    
01ITUB        PN      N1201705150507000070ITUBE6      000000010000000003679000000000000000000000000006700000000000000000000000000006700000000100000012172ACN    
01ITUB        PN      N1201705150515000070ITUBE19     000000010000000003929000000000006700000000000006700000000000000000000000000013400000000100000012172ACN    
01ITUB        PN      N1201705150531000070ITUBE11     000000010000000004154000000000000000000000000000000000000000003000000000000003000000000100000012171ACN    
01KROT        ON      NM201705150698000070KROTE72     000000010000000001275000000000000000000000000000000000000000070000000000000070000000000100000011222ACN    
01LAME        PN        201705150027000070LAMEE78     000000010000000001875000000000000000000000000010000000000000000000000000000010000000000100000011982ACN    
01LAME        PN        201705150035000070LAMEE79     000000010000000001975000000000005600000000000004400000000000000000000000000010000000000100000011982ACN    
01LIGT        ON      NM201705150205000070LIGTE76     000000010000000001675000000000000000000000000000000000000000010200000000000010200000000100000031182ACN    
01MILS        ON      NM201705150094000070MILSE94     000000010000000000475000000000000000000000000080000000000000000000000000000080000000000100000011122ACN    
01MILS        ON      NM201705150108000070MILSE6      000000010000000000600000000000000000000000000080000000000000000000000000000080000000000100000011121ACN    
01MRFG        ON      NM201705154103000070MRFGE72     000000010000000000720000000000000000000000000600000000000000600000000000001200000000000400000011081ACN    
01MRFG        ON      NM201705154111000070MRFGE84     000000010000000000840000000000000000000000000600000000000000000000000000000600000000000100000041081ACN    
01MRVE        ON      NM201705150205000070MRVEE2      000000010000000001165000000002000000000000000000000000000000000000000000002000000000000100000011101ACN    
01PETR        PN        201705157595000070PETRE31     000000010000000000810000000000030000000000000000000000000000000000000000000030000000000100000011852ACN    
01PETR        PN        201705158028000070PETRE10     000000010000000001000000000000061500000000000000000000000000000000000000000061500000000100000011851ACN    
01PETR        PN        201705157900000070PETRE70     000000010000000001075000000000015000000000000000000000000000000000000000000015000000000300000021852ACN    
01PETR        PN        201705157617000070PETRE34     000000010000000001400000000000051200000000000000000000000000000000000000000051200000000600000031851ACN    
01PETR        PN        201705153654000070PETRE75     000000010000000001575000000000000000000000000004000000000000000000000000000004000000000100000011862ACN    
01PETR        PN        201705152801000070PETRE16     000000010000000001600000000000000000000000000098400000000000000000000000000098400000002000000021861ACN    
01PETR        PN        201705153638000070PETRE76     000000010000000001625000000000000000000000000004500000000000000000000000000004500000000100000011862ACN    
01PETR        PN        201705152232000070PETRE46     000000010000000001650000000000000000000000000005000000000000000000000000000005000000000100000011861ACN    
01PETR        PN        201705152240000070PETRE17     000000010000000001700000000000002000000000000058300000000000312300000000000372600000000800000051861ACN    
01PETR        PN        201705153190000070PETRE77     000000010000000001725000000000000000000000000018000000000000000000000000000018000000000200000021862ACN    
01PETR        PN        201705151570000070PETRE18     000000010000000001800000000000139000000000000107900000000000607600000000000854500000001900000301861ACN    
01PETR        PN        201705153379000070PETRE78     000000010000000001825000000000012000000000000004000000000000028100000000000044100000000300000051862ACN    
01PETR        PN        201705153204000070PETRE68     000000010000000001875000000000010000000000000010000000000000000000000000000020000000000100000011862ACN    
01PETR        PN        201705152100000070PETRE20     000000010000000002000000000000000000000000000704800000000000001300000000000706100000001400000061861ACN    
01PETR        PN        201705151589000070PETRE21     000000010000000002100000000000000000000000000040800000000000867200000000000908000000000300000031861ACN    
01PETR        PN        201705152828000070PETRE22     000000010000000002200000000000000000000000000000600000000000785800000000000786400000000900000041861ACN    
01PETR        PN        201705152836000070PETRE23     000000010000000002300000000000000000000000000000000000000000188500000000000188500000000200000021861ACN    
01PETR        PN        201705152844000070PETRE24     000000010000000002400000000000020300000000000004900000000000833800000000000859000000000100000041861ACN    
01RUMO        ON      NM201705152275000070RUMOE65     000000010000000000650000000000000000000000000000000000000000020000000000000020000000000100000011022ACN    
01ARZZ        ON      NM201702200027000070ARZZB2      000000010000000003229000000000000100000000000000000000000000012200000000000012300000000200000031221ACN    
01BBAS        ON      NM201702200647000070BBASB86     000000010000000001597000000000005400000000000000000000000000019000000000000024400000000200000022572ACN    
01BBAS        ON      NM201702200990000070BBASB87     000000010000000001647000000000003800000000000000000000000000005000000000000008800000000200000022572ACN    
01BBAS        ON      NM201702201023000070BBASB78     000000010000000001797000000000118000000000000000000000000000011000000000000129000000000200000062572ACN    
01BBAS        ON      NM201702201163000070BBASB72     000000010000000002247000000000006000000000000000000000000000004000000000000010000000000200000022612ACN    
01BBAS        ON      NM201702201180000070BBASB74     000000010000000002447000000000018400000000000000000000000000005000000000000023400000000300000032612ACN    
01BBAS        ON      NM201702201171000070BBASB77     000000010000000002747000000000071100000000000003000000000000005400000000000079500000000200000102612ACN    
01BBAS        ON      NM201702200213000070BBASB48     000000010000000001872000000000000900000000000000000000000000000000000000000000900000000100000012631ACN    
01BBAS        ON      NM201702201066000070BBASB79     000000010000000001897000000000135500000000000000800000000000001600000000000137900000000100000042632ACN    
01BBAS        ON      NM201702201244000070BBASB20     000000010000000002022000000000002500000000000001000000000000000000000000000003500000000200000042631ACN    
01BBAS        ON      NM201702201236000070BBASB50     000000010000000002072000000001031300000000000000000000000000000000000000001031300000000300000042631ACN    
01BBAS        ON      NM201702201112000070BBASB22     000000010000000002222000000000001800000000000000000000000000000000000000000001800000000100000022631ACN    
01BBAS        ON      NM201702200221000070BBASB52     000000010000000002272000000000007000000000000000000000000000100000000000000107000000000200000022631ACN    
01BBAS        ON      NM201702200132000070BBASB63     000000010000000002297000000000000000000000000003000000000000000000000000000003000000000300000022632ACN    
01UGPA        ON      NM201707171864000070UGPAG47     000000010000000008670000000000000000000000000000000000000000011600000000000011600000000100000021372ACN    
01VALE        PNA     N1201707172313000070VALEG81     000000010000000001424000000000000000000000000000000000000000000500000000000000500000000100000011912ACN    
01VALE        PNA     N1201707172321000070VALEG84     000000010000000001674000000000000000000000000000000000000000005800000000000005800000000100000021912ACN    
01VALE        PNA     N1201707172330000070VALEG86     000000010000000001924000000000108900000000000000000000000000178200000000000287100000000300000141912ACN    
01VALE        PNA     N1201707172348000070VALEG88     000000010000000001974000000000000000000000000000000000000000006400000000000006400000000100000061912ACN    
01VALE        PNA     N1201707174316000070VALEG71     000000010000000001124000000000033600000000000000000000000000000200000000000033800000000200000021922ACN    
01VALE        PNA     N1201707174340000070VALEG7      000000010000000001174000000000000000000000000011500000000000000000000000000011500000000100000011922ACN    
01VALE        PNA     N1201707174367000070VALEG62     000000010000000001199000000000000000000000000004000000000000000100000000000004100000000200000021921ACN    
01VALE        PNA     N1201707174391000070VALEG52     000000010000000001274000000000001000000000000000000000000000000000000000000001000000000100000011922ACN    
01VALE        PNA     N1201707175436000070VALEG74     000000010000000001474000000000000000000000000000000000000000020000000000000020000000000100000011922ACN    
01VALE        PNA     N1201707174375000070VALEG65     000000010000000001574000000000031800000000000015500000000000004000000000000051300000000200000041922ACN    
01VALE        PNA     N1201707174138000070VALEG16     000000010000000001599000000000291300000000000000000000000000096300000000000387600000000200000191921ACN    
01VALE        PNA     N1201707174146000070VALEG17     000000010000000001699000000000020600000000000000000000000000006800000000000027400000000200000091921ACN    
01VALE        PNA     N1201707174359000070VALEG27     000000010000000001724000000000237600000000000020000000000000137700000000000395300000000200000041922ACN    
01VALE        PNA     N1201707174405000070VALEG67     000000010000000001774000000000680000000000000000000000000001400000000000002080000000000200000051922ACN    
01VALE        PNA     N1201707174758000070VALEG31     000000010000000001874000000000220000000000000000000000000000650000000000000870000000000500000061922ACN    
01VALE        PNA     N1201707170167000070VALEG90     000000010000000003049000000000020000000000000000000000000000000000000000000020000000000100000011921ACN    
01VALE        PNA     N1201707170183000070VALEG92     000000010000000003249000000000000000000000000000000000000000002200000000000002200000000100000021921ACN    
01VALE        PNA     N1201707170191000070VALEG93     000000010000000003349000000000010000000000000000000000000000017000000000000027000000000200000021921ACN    
01VALE        PNA     N1201707170710000070VALEG53     000000010000000002399000000000000000000000000044000000000000000100000000000044100000000200000021931ACN    
01VALE        PNA     N1201707170728000070VALEG77     000000010000000002724000000000044000000000000044000000000000001100000000000089100000000200000031932ACN    
01VIVT        PN        201707170671000070VIVTG21     000000010000000005077000000000012100000000000000000000000000000000000000000012100000000200000021302ACN    
01VIVT        PN        201707170043000070VIVTG22     000000010000000005177000000000000100000000000000000000000000000000000000000000100000000100000011312ACN    
01VIVT        PN        201707170078000070VIVTG55     000000010000000005527000000000000000000000000000000000000000008100000000000008100000000100000011311ACN    
01VIVT        PN        201707170329000070VIVTG47     000000010000000004727000000000000000000000000000000000000000004800000000000004800000000100000011331ACN    
01WEGE        ON      NM201707170850000070WEGEG78     000000010000000001822000000000000000000000000000000000000000080000000000000080000000000100000011722ACN    
01ABEV    /ED ON        201708212194000070ABEVH89     000000010000000001870000000000000000000000000040100000000000000000000000000040100000000200000021122ACN    
01ABEV    /ED ON        201708212518000070ABEVH60     000000010000000002020000000000040000000000000040000000000000000000000000000080000000000100000011122ACN    
01ABEV    /ED ON        201708212488000070ABEVH82     000000010000000002220000000000000000000000000000000000000000054100000000000054100000000200000021122ACN    
01ABEV    /ED ON        201708211732000070ABEVH73     000000010000000002320000000000000000000000000050300000000000000000000000000050300000000200000021122ACN    
01ABEV    /ED ON        201708210329000070ABEVH3      000000010000000002270000000000002300000000000000000000000000001200000000000003500000000100000021132ACN    
01BBAS        ON      NM201708211139000070BBASH85     000000010000000002536000000000062400000000000000000000000000000000000000000062400000000100000012612ACN    
01BBAS        ON      NM201708210795000070BBASH86     000000010000000002636000000000010300000000000000000000000000002700000000000013000000000200000032612ACN    
01BBAS        ON      NM201708210183000070BBASH83     000000010000000002336000000000000000000000000000000000000000005200000000000005200000000100000012622ACN    
01BBAS        ON      NM201708210191000070BBASH87     000000010000000002686000000000000000000000000005200000000000005200000000000010400000000100000012622ACN    
01BBDC        PN      N1201708210108000070BBDCH78     000000010000000002714000000000002900000000000002900000000000000000000000000005800000000100000016472ACN    
01BBDC        PN      N1201708210175000070BBDCH99     000000010000000003014000000000022400000000000000000000000000000000000000000022400000000100000046472ACN    
01BBDC        PN      N1201708210116000070BBDCH51     000000010000000003064000000000076800000000000000000000000000000000000000000076800000000100000056472ACN    
01BBDC        PN      N1201708210094000070BBDCH82     000000010000000003114000000000001900000000000000000000000000015900000000000017800000000300000036472ACN    
01BBDC        PN      N1201708210213000070BBDCH94     000000010000000003314000000000000000000000000004100000000000004900000000000009000000000200000036472ACN    
01BBDC        PN      N1201708210132000070BBDCH95     000000010000000003414000000000004000000000000004900000000000088400000000000097300000000300000056472ACN    
01BBDC        PN      N1201708210310000070BBDCH19     000000010000000002264000000000000000000000000002900000000000000000000000000002900000000100000016482ACN    
01BBDC        PN      N1201708210027000070BBDCH80     000000010000000002964000000000006600000000000000000000000000000000000000000006600000000100000026482ACN    
01BBDC        PN      N1201708210060000070BBDCH42     000000010000000003164000000000030500000000000000000000000000000000000000000030500000000100000026482ACN    
01BBDC        ON      N1201708210183000070BBDCH13     000000010000000003281000000000077100000000000000000000000000015000000000000092100000000200000026482ACN    
01PETR        PN        201711218893000070PETRK46     000000010000000001625000000000037600000000000009100000000000063000000000000109700000000600000211852ACN    
01PETR        PN        201711210230000070PETRK6      000000010000000001275000000000002300000000000000000000000000000000000000000002300000000100000011862ACN    
01PETR        PN        201711212216000070PETRK81     000000010000000001450000000000000000000000000000000000000000040000000000000040000000000100000011861ACN    
01PETR        PN        201711212356000070PETRK77     000000010000000001775000000000008800000000000007800000000000000500000000000017100000000200000031862ACN    
01PETR        PN        201711212224000070PETRK89     000000010000000001825000000000000000000000000040000000000000040000000000000080000000000100000011862ACN    
01RADL        ON      NM201711210043000070RADLK10     000000010000000005037000000000000000000000000000000000000000050000000000000050000000000100000011202ACN    
01UGPA        ON      NM201711211074000070UGPAK36     000000010000000008650000000000000000000000000000000000000000050000000000000050000000000100000011382ACN    
01UGPA        ON      NM201711211082000070UGPAK29     000000010000000008950000000000000000000000000000000000000000050000000000000050000000000100000011382ACN    
01USIM        PNA     N1201711212410000070USIMK15     000000010000000000147000000000000000000000000000000000000000006200000000000006200000000400000011551ACN    
01VALE        PNA     N1201711214820000070VALEK73     000000010000000001361000000000000000000000000020000000000000000000000000000020000000000100000011922ACN    
01VALE        PNA     N1201711214839000070VALEK98     000000010000000001811000000000000000000000000020000000000000024600000000000044600000000200000031922ACN    
01VALE        PNA     N1201711215819000070VALEK60     000000010000000002011000000000000000000000000000000000000000006800000000000006800000000200000031922ACN    
01VALE        PNA     N1201711216335000070VALEK84     000000010000000002411000000000014500000000000000000000000000000000000000000014500000000100000011922ACN    
01VALE        PNA     N1201711216505000070VALEK31     000000010000000002511000000000006000000000000000000000000000000000000000000006000000000100000011922ACN    
01VALE        PNA     N1201711216394000070VALEK75     000000010000000002561000000000000000000000000000000000000000015000000000000015000000000100000011922ACN    
01VALE        PNA     N1201711216734000070VALEK34     000000010000000002761000000000045000000000000000000000000000000000000000000045000000000100000011922ACN    
01VALE        PNA     N1201711216750000070VALEK35     000000010000000002986000000000000000000000000000000000000000300000000000000300000000000100000081921ACN    
01ABEV    /ED ON        201712182445000070ABEVL63     000000010000000002270000000000009000000000000000000000000002024900000000002033900000000600000081122ACN    
01ABEV    /ED ON        201712182585000070ABEVL56     000000010000000002595000000000000000000000000000500000000001000000000000001000500000000200000021121ACN    
01ABEV    /ED ON        201712180140000070ABEVL79     000000010000000001870000000000064000000000000064600000000001000000000000001128600000000400000031132ACN    
01ABEV    /ED ON        201712181457000070ABEVL7      000000010000000002170000000000000000000000000800000000000000060400000000000860400000000300000031132ACN    
01ABEV    /ED ON        201712180396000070ABEVL72     000000010000000002220000000000002800000000000000300000000000000000000000000003100000000300000031132ACN    
01ABEV    /ED ON        201712180132000070ABEVL3      000000010000000002320000000000050800000000000000000000000000000000000000000050800000000200000011132ACN    
01ABEV    /ED ON        201712180345000070ABEVL74     000000010000000002370000000000009900000000000000000000000000000000000000000009900000000100000011132ACN    
01ABEV    /ED ON        201712180256000070ABEVL87     000000010000000001720000000000000000000000000064000000000000045000000000000109000000000300000021142ACN    
01ABEV    /ED ON        201712180736000070ABEVL11     000000010000000001970000000004700000000000000059000000000004037700000000008796700000000200000071142ACN    
01ABEV    /ED ON        201712180280000070ABEVL70     000000010000000002070000000005634800000000000385000000000000405000000000006424800000000200000071142ACN    
01ABEV    /ED ON        201712180396000070ABEVL60     000000010000000002020000000001752400000000000000000000000002408400000000004160800000000100000031152ACN    
01BBAS        ON      NM201712181236000070BBASL3      000000010000000002961000000000005100000000000000000000000000007300000000000012400000000300000082611ACN    
01BBAS        ON      NM201712180906000070BBASL82     000000010000000002261000000000000000000000000000000000000000006000000000000006000000000100000012631ACN    
01BBAS        ON      NM201712180469000070BBASL11     000000010000000003186000000000000000000000000000000000000000015400000000000015400000000100000032642ACN    
01BBAS        ON      NM201712180361000070BBASL14     000000010000000003436000000000005200000000000000000000000000004400000000000009600000000200000032652ACN    
01BBAS        ON      NM201712180337000070BBASL4      000000010000000003461000000000000100000000000000000000000000004300000000000004400000000200000022651ACN    
01BBAS        ON      NM201712180434000070BBASL75     000000010000000003586000000000001000000000000000000000000000075500000000000076500000000200000032652ACN    
01BBDC        PN      N1201712180485000070BBDCL89     000000010000000002270000000000000000000000000000000000000000022000000000000022000000000100000016432ACN    
01BBDC        PN      N1201712180876000070BBDCL12     000000010000000003320000000000000000000000000000000000000000227000000000000227000000000300000046512ACN    
01BBDC        PN      N1201712180647000070BBDCL8      000000010000000003470000000000009700000000000000000000000000078400000000000088100000000200000066512ACN    
01BBDC        ON      N1201712180280000070BBDCL58     000000010000000003798000000000000000000000000000000000000000010000000000000010000000000100000016512ACN    
01BBDC        PN      N1201712180051000070BBDCL32     000000010000000002152000000000098400000000000000000000000000000000000000000098400000000100000026522ACN    
01BBDC        PN      N1201712180019000070BBDCL65     000000010000000002470000000000044600000000000000000000000000000000000000000044600000000100000016522ACN    
01BBDC        PN      N1201712180345000070BBDCL23     000000010000000002520000000000000000000000000000000000000000011000000000000011000000000100000016522ACN    
01BBDC        PN      N1201712180361000070BBDCL30     000000010000000002870000000000000300000000000000000000000000002100000000000002400000000100000036522ACN    
01BBDC        PN      N1201712180116000070BBDCL16     000000010000000003420000000000000000000000000000200000000000000000000000000000200000000200000016522ACN    
01BBDC        PN      N1201712180043000070BBDCL36     000000010000000003570000000000000000000000000000000000000000009300000000000009300000000200000026522ACN    
01BBAS        ON      NM201702201120000070BBASB23     000000010000000002322000000000001300000000000000500000000000007800000000000009600000000100000032631ACN    
01BBAS        ON      NM201702201260000070BBASB84     000000010000000002397000000000000000000000000000000000000000002400000000000002400000000100000012632ACN    
01BBAS        ON      NM201702201031000070BBASB24     000000010000000002422000000000006800000000000001500000000000019000000000000027300000000200000072631ACN    
01BBAS        ON      NM201702200604000070BBASB54     000000010000000002472000000000008700000000000000900000000000001700000000000011300000000200000082631ACN    
01BBAS        ON      NM201702200140000070BBASB65     000000010000000002497000000000000500000000000002000000000000002000000000000004500000000200000022632ACN    
01BBAS        ON      NM201702201007000070BBASB25     000000010000000002522000000000058700000000000003000000000000024800000000000086500000000200000112631ACN    
01BBAS        ON      NM201702200930000070BBASB85     000000010000000002547000000000000200000000000017500000000000000000000000000017700000000500000022632ACN    
01BBAS        ON      NM201702201147000070BBASB55     000000010000000002572000000000028200000000000001500000000000016500000000000046200000000300000152631ACN    
01BBAS        ON      NM201702200957000070BBASB6      000000010000000002597000000000031000000000000000000000000000000000000000000031000000000200000022632ACN    
01BBAS        ON      NM201702201155000070BBASB26     000000010000000002622000000000008100000000000008100000000000058600000000000074800000000300000262631ACN    
01BBAS        ON      NM201702201279000070BBASB76     000000010000000002647000000000001500000000000008000000000000000000000000000009500000000300000032632ACN    
01BBAS        ON      NM201702200230000070BBASB56     000000010000000002672000000001144400000000000071700000000000011300000000001227400000000700000202631ACN    
01BBAS        ON      NM201702200612000070BBASB67     000000010000000002697000000000007900000000000004300000000000000300000000000012500000000300000072632ACN    
01BBAS        ON      NM201702201163000070BBASB27     000000010000000002722000000000143200000000000010200000000000072400000000000225800000000800000602631ACN    
01BBAS        ON      NM201702201171000070BBASB57     000000010000000002772000000000064700000000000081800000000000027000000000000173500000000300000492631ACN    
01BBAS        ON      NM201702200981000070BBASB68     000000010000000002797000000000004300000000000139400000000000084100000000000227800000000500000112632ACN    
01BBAS        ON      NM201702201180000070BBASB28     000000010000000002822000000000268300000000000520900000000000637200000000001426400000001400001372631ACN    
01BBAS        ON      NM201702200574000070BBASB58     000000010000000002872000000000092500000000000401200000000000055600000000000549300000001100000552631ACN    
01BBAS        ON      NM201702200302000070BBASB89     000000010000000002897000000000052400000000000000000000000000522000000000000574400000000800000272632ACN    
01BBAS        ON      NM201702200965000070BBASB29     000000010000000002922000000000222700000000000828400000000000473100000000001524200000009600002242631ACN    
01BBAS        ON      NM201702201287000070BBASB69     000000010000000002947000000000016300000000000138000000000000008400000000000162700000000600000172632ACN    
01BBAS        ON      NM201702201040000070BBASB59     000000010000000002972000000000182700000000000036800000000000044100000000000263600000001100000502631ACN    
01BBAS        ON      NM201702200922000070BBASB3      000000010000000002997000000000013100000000000053700000000000081500000000000148300000001000000342632ACN    
01BBAS        ON      NM201702201198000070BBASB30     000000010000000003022000000000127200000000000147800000000000264100000000000539100000004500001332631ACN    
01BBAS        ON      NM201702201015000070BBASB90     000000010000000003047000000000065300000000000008900000000000144400000000000218600000000700000152632ACN    
01BBAS        ON      NM201702200310000070BBASB11     000000010000000003097000000000087300000000000007800000000000023600000000000118700000000400000252632ACN    
01BBAS        ON      NM201702200973000070BBASB31     000000010000000003122000000000129900000000000491000000000000145100000000000766000000005100001042631ACN    
01BBAS        ON      NM201702201058000070BBASB32     000000010000000003222000000000330800000000000951300000000000326800000000001608900000017900006422631ACN    
01BBAS        ON      NM201702201023000070BBASB93     000000010000000003297000000000002900000000000037100000000000113800000000000153800000001100000162632ACN    
01BBAS        ON      NM201702201228000070BBASB33     000000010000000003322000000000193100000000000144900000000000091200000000000429200000009400000782631ACN    
01BBAS        ON      NM201702200264000070BBASB81     000000010000000002147000000000000000000000000002000000000000040100000000000042100000000200000022652ACN    
01BBAS        ON      NM201702200400000070BBASB88     000000010000000002847000000000026200000000000000000000000000015200000000000041400000000200000112652ACN    
01BBAS        ON      NM201702200710000070BBASB34     000000010000000003422000000000024800000000000000000000000000000000000000000024800000000100000012651ACN    
01BBAS        ON      NM201702200736000070BBASB35     000000010000000003522000000000000000000000000012000000000000000000000000000012000000000300000012651ACN    
01BBAS        ON      NM201702200744000070BBASB95     000000010000000003572000000000000000000000000000000000000000018000000000000018000000000200000022651ACN    
01BBAS        ON      NM201702200752000070BBASB36     000000010000000003622000000000000000000000000000000000000000012400000000000012400000000300000022651ACN    
01BBAS  FM    ON      NM201702200949000070BBASB1      000000010000000003072000000000019300000000000083100000000000032500000000000134900000001600000362631ACN    
01BBAS  FM    ON      NM201702201201000070BBASB61     000000010000000003172000000000173300000000001272900000000000213800000000001660000000079900001442631ACN    
01BBAS  FM    ON      NM201702201210000070BBASB2      000000010000000003272000000000029600000000000216900000000000145300000000000391800000005300001002631ACN    
01BBAS  FM    ON      NM201702201252000070BBASB83     000000010000000003372000000000115900000000000175100000000000211300000000000502300000007300000742631ACN    
01BBDC        PN      N1201702208001000070BBDCB89     000000010000000001632000000000000000000000000231000000000000001540000000000232540000000300000026422ACN    
01BBDC        PN      N1201702200183000070BBDCB69     000000010000000001654000000000000000000000000468600000000000000000000000000468600000000200000016421ACN    
01BBDC        ON      N1201702200051000070BBDCB91     000000010000000001833000000000000000000000000660000000000000000000000000000660000000000100000016422ACN    
01BBDC        PN      N1201702208010000070BBDCB92     000000010000000001995000000000081100000000000231000000000000320100000000000632200000000400000056422ACN    
01BBDC        PN      N1201702200191000070BBDCB73     000000010000000002041000000000027200000000000468600000000000523200000000001019000000000400000066422ACN    
01BBDC        ON      N1201702200060000070BBDCB97     000000010000000002288000000000000000000000001320000000000000000000000000001320000000000100000016422ACN    
01BBDC        PN      N1201702200566000070BBDCB5      000000010000000001359000000000000000000000000077000000000000000220000000000077220000000200000026432ACN    
01BBDC        PN      N1201702200434000070BBDCB14     000000010000000001404000000000000000000000001410670000000000000000000000001410670000001600000026432ACN    
01BBDC        PN      N1201702200833000070BBDCB76     000000010000000001427000000000000000000000000114950000000000000000000000000114950000000300000016431ACN    
01BBDC        PN      N1201702200337000070BBDCB11     000000010000000001450000000000000000000000000110000000000000000000000000000110000000000100000016432ACN    
01BBDC        PN      N1201702200264000070BBDCB40     000000010000000001473000000000000000000000000964150000000000000000000000000964150000000800000026431ACN    
01BBDC        ON      N1201702200175000070BBDCB95     000000010000000001492000000000000000000000000027500000000000000000000000000027500000000100000016431ACN    
01BBDC        ON      N1201702200140000070BBDCB98     000000010000000001515000000000000000000000000110000000000000000000000000000110000000000100000016432ACN    
01BBDC        PN      N1201702200108000070BBDCB68     000000010000000001518000000000000550000000000220000000000000000000000000000220550000000200000026431ACN    
01BBDC        ON      N1201702200094000070BBDCB32     000000010000000001606000000000000000000000000060000000000000000000000000000060000000000100000016432ACN    
01BBDC        PN      N1201702200442000070BBDCB17     000000010000000001768000000000000000000000001789620000000001635620000000003425240000000200000216432ACN    
01BBDC        PN      N1201702200272000070BBDCB41     000000010000000001814000000000067650000000001403650000000000858500000000002329800000000200000156432ACN    
01BBDC        PN      N1201702200116000070BBDCB66     000000010000000001859000000000000000000000000110000000000000742940000000000852940000000200000026432ACN    
01BBDC        ON      N1201702200159000070BBDCB99     000000010000000001879000000000000000000000000137500000000000137500000000000275000000000100000026432ACN    
01BBDC        PN      N1201702200450000070BBDCB26     000000010000000001950000000000000000000000000000000000000000899980000000000899980000000200000076432ACN    
01BBDC        ON      N1201702200108000070BBDCB33     000000010000000001970000000000000000000000000000000000000000120000000000000120000000000100000016432ACN    
01BBDC        ON      N1201702200167000070BBDCB10     000000010000000002015000000000000000000000000000000000000000157190000000000157190000000100000016432ACN    
01BBDC        ON      N1201702200272000070BBDCB82     000000010000000001924000000000000000000000000000000000000000096600000000000096600000000100000016442ACN    
01BBDC        PN      N1201702200477000070BBDCB16     000000010000000002291000000000000000000000000000000000000000033000000000000033000000000100000016441ACN    
01BBDC        PN      N1201702200353000070BBDCB56     000000010000000002314000000000049500000000000006820000000000000000000000000056320000000100000066442ACN    
01BBDC        PN      N1201702200558000070BBDCB46     000000010000000002336000000000000000000000000000000000000000031460000000000031460000000200000026441ACN    
01BBDC        ON      N1201702200280000070BBDCB88     000000010000000002492000000000000000000000000186890000000000000000000000000186890000000100000016441ACN    
01BBDC        ON      N1201702200353000070BBDCB78     000000010000000002515000000000005720000000000023320000000000000000000000000029040000000100000026442ACN    
01BBDC        PN      N1201702200086000070BBDCB51     000000010000000001882000000000000000000000000000000000000000098700000000000098700000000100000016451ACN    
01BBDC        PN      N1201702200094000070BBDCB27     000000010000000002382000000000000660000000000003140000000000018040000000000021840000000200000046451ACN    
01BBDC        ON      N1201702200027000070BBDCB96     000000010000000002560000000000000000000000000000000000000000024860000000000024860000000100000016452ACN    
01BBDC        PN      N1201702200590000070BBDCB70     000000010000000002700000000000003400000000000212100000000000001100000000000216600000000500000096451ACN    
01BBDC        PN      N1201702200507000070BBDCB61     000000010000000002723000000000008300000000000000000000000000445440000000000453740000000300000096452ACN    
01BBDC        PN      N1201702200892000070BBDCB2      000000010000000003173000000000118700000000000459800000000000257500000000000836000000000900000596512ACN    
01BBDC        ON      N1201702200094000070BBDCB12     000000010000000002388000000000000000000000000000100000000000000000000000000000100000000100000016522ACN    
01BBDC        PN      N1201702208001000070BBDCB55     000000010000000002482000000000001300000000000000000000000000010200000000000011500000000100000036531ACN    
01BBDC        PN      N1201702200230000070BBDCB79     000000010000000002873000000000035800000000000037900000000000138700000000000212400000000400000126532ACN    
01BBDC        PN      N1201702208010000070BBDCB29     000000010000000002898000000000127400000000000167800000000000081200000000000376400000001000000356531ACN    
01BBDC        PN      N1201702200795000070BBDCB31     000000010000000002091000000000000000000000000133100000000000262500000000000395600000000300000046552ACN    
01BBDC        PN      N1201702200833000070BBDCB36     000000010000000003523000000000089400000000000247000000000000334900000000000671300000001900000216552ACN    
01BBDC        PN      N1201702200132000070BBDCB52     000000010000000002582000000000000000000000000000000000000000080800000000000080800000000300000036571ACN    
01BBDC        PN      N1201702200167000070BBDCB80     000000010000000002657000000000000000000000000000000000000000011000000000000011000000000100000016572ACN    
01BBDC        PN      N1201702200116000070BBDCB44     000000010000000002798000000000001700000000000216300000000000068400000000000286400000000500000156571ACN    
01BBDC        PN      N1201702200124000070BBDCB45     000000010000000002998000000000158100000000000031810000000000257990000000000447900000000900000476571ACN    
01BBDC        PN      N1201702200396000070BBDCB54     000000010000000003448000000000063100000000000105100000000000474000000000000642200000001400000256591ACN    
01BBDC  FM    PN      N1201702200248000070BBDCB1      000000010000000003098000000000253700000000001878800000000000162700000000002295200000001700000856531ACN    
01BBDC  FM    PN      N1201702208028000070BBDCB3      000000010000000003298000000000223900000000000233800000000005540600000000005998300000002800001256531ACN    
01BBDC  FM    PN      N1201702200272000070BBDCB43     000000010000000003198000000000075900000000000235600000000000459300000000000770800000001700000746561ACN    
01BBDC  FM    PN      N1201702200388000070BBDCB49     000000010000000003398000000000094500000000000075900000000000061700000000000232100000001100000366591ACN    
01BBDC  FM    PN      N1201702200426000070BBDCB57     000000010000000003498000000000006300000000000109300000000000126200000000000241800000001200000096591ACN    
01BBSE        ON      NM201702202178000070BBSEB96     000000010000000002459000000000000500000000000000100000000000000000000000000000600000000100000021052ACN    
01BBSE        ON      NM201702201937000070BBSEB99     000000010000000002759000000000038600000000000033100000000000012800000000000084500000000200000111052ACN    
01BBSE        ON      NM201702202968000070BBSEB35     000000010000000003434000000000000000000000000003100000000000000000000000000003100000000200000011061ACN    
01BBSE        ON      NM201702200779000070BBSEB27     000000010000000002734000000000015000000000000007500000000000015400000000000037900000000100000131071ACN    
01BBSE        ON      NM201702200795000070BBSEB28     000000010000000002834000000000051100000000000030000000000000040300000000000121400000000800000291071ACN    
01BBSE        ON      NM201702201023000070BBSEB88     000000010000000002859000000000018100000000000019100000000000012000000000000049200000000100000041072ACN    
01BBSE        ON      NM201702201350000070BBSEB69     000000010000000002909000000000012400000000000043200000000000036800000000000092400000000300000071072ACN    
01BBSE        ON      NM201702200299000070BBSEB29     000000010000000002934000000000010900000000000008200000000000020300000000000039400000000500000201071ACN    
01BBSE        ON      NM201702200825000070BBSEB30     000000010000000003034000000000004600000000000002500000000000076200000000000083300000001000000211071ACN    
01BBSE        ON      NM201702200841000070BBSEB31     000000010000000003134000000000013000000000000000000000000000004900000000000017900000000400000081071ACN    
01BBSE        ON      NM201702200850000070BBSEB1      000000010000000003184000000000000000000000000011400000000000001100000000000012500000000200000021071ACN    
01BBSE        ON      NM201702200736000070BBSEB32     000000010000000003234000000000000000000000000030000000000000000000000000000030000000000100000011071ACN    
01BBSE        ON      NM201702200973000070BBSEB72     000000010000000003259000000000001100000000000000000000000000164200000000000165300000000300000201072ACN    
01BBSE        ON      NM201702200680000070BBSEB37     000000010000000003734000000000000000000000000000000000000000001500000000000001500000000100000011071ACN    
01BBSE  FM    ON      NM201702200760000070BBSEB56     000000010000000002684000000000102200000000000000000000000000000000000000000102200000000400000121071ACN    
01BBSE  FM    ON      NM201702200787000070BBSEB57     000000010000000002784000000000067000000000000003400000000000033800000000000104200000000200000231071ACN    
01BBSE  FM    ON      NM201702200809000070BBSEB58     000000010000000002884000000000005700000000000077800000000000082200000000000165700000000500000071071ACN    
01BBSE  FM    ON      NM201702200817000070BBSEB59     000000010000000002984000000000003100000000000004600000000000041500000000000049200000000300000081071ACN    
01BBSE  FM    ON      NM201702200833000070BBSEB60     000000010000000003084000000000006200000000000146200000000000000100000000000152500000000500000041071ACN    
01BRAP        PN      N1201702200027000070BRAPB75     000000010000000001575000000000006700000000000000000000000000000100000000000006800000000100000021302ACN    
01BRFS        ON      NM201702202933000070BRFSB28     000000010000000005722000000000000000000000000030000000000000000000000000000030000000000100000011142ACN    
01BRFS        ON      NM201702202941000070BRFSB37     000000010000000006622000000000000000000000000060000000000000000000000000000060000000000100000011142ACN    
01BRFS        ON      NM201702201597000070BRFSB51     000000010000000005072000000000004500000000000005000000000000164000000000000173500000001600000201161ACN    
01BRFS        ON      NM201702203123000070BRFSB13     000000010000000004397000000000000000000000000004000000000000000000000000000004000000000100000011171ACN    
01BRFS        ON      NM201702201899000070BRFSB45     000000010000000004547000000000030300000000000033600000000000001700000000000065600000000300000111171ACN    
01BRFS        ON      NM201702202445000070BRFSB86     000000010000000004622000000000002600000000000002500000000000000000000000000005100000000100000031172ACN    
01BRFS        ON      NM201702201910000070BRFSB46     000000010000000004647000000000028700000000000003100000000000010500000000000042300000000600000241171ACN    
01BRFS        ON      NM201702201937000070BRFSB47     000000010000000004747000000000020600000000000000100000000000051000000000000071700000000300000121171ACN    
01BRFS        ON      NM201702201953000070BRFSB48     000000010000000004847000000000014800000000000001000000000000029300000000000045100000001200000151171ACN    
01BRFS        ON      NM201702201970000070BRFSB49     000000010000000004947000000000006700000000000011300000000000006800000000000024800000000300000111171ACN    
01BRFS        ON      NM201702201988000070BRFSB19     000000010000000004997000000000007000000000000001000000000000034900000000000042900000000700000121171ACN    
01BRFS        ON      NM201702201996000070BRFSB1      000000010000000005172000000000006400000000000000000000000000010300000000000016700000000700000091171ACN    
01BRFS        ON      NM201702202003000070BRFSB52     000000010000000005272000000000003500000000000000900000000000000300000000000004700000000300000061171ACN    
01BRFS        ON      NM201702202011000070BRFSB53     000000010000000005372000000000003600000000000213100000000000005000000000000221700000000900000041171ACN    
01BRFS        ON      NM201702202020000070BRFSB54     000000010000000005472000000000000000000000000003000000000000151000000000000154000000000300000031171ACN    
01BRFS        ON      NM201702202453000070BRFSB35     000000010000000005522000000000001500000000000010400000000000291100000000000303000000000400000041172ACN    
01BRFS        ON      NM201702200019000070BRFSB55     000000010000000005572000000000000100000000000180000000000000180400000000000360500000000500000041171ACN    
01BRFS        ON      NM201702201171000070BRFSB7      000000010000000005772000000000000000000000000073300000000000286700000000000360000000000700000021171ACN    
01BRFS  FM    ON      NM201702201589000070BRFSB95     000000010000000004472000000000019900000000000005300000000000000000000000000025200000000100000041162ACN    
01BRFS  FM    ON      NM201702201902000070BRFSB5      000000010000000004597000000000037600000000000026700000000000010400000000000074700000000200000261171ACN    
01BRFS  FM    ON      NM201702201929000070BRFSB6      000000010000000004697000000000012400000000000024700000000000003400000000000040500000000400000091171ACN    
01BRFS  FM    ON      NM201702201945000070BRFSB17     000000010000000004797000000000010200000000000002800000000000086100000000000099100000000800000241171ACN    
01BRFS  FM    ON      NM201702201961000070BRFSB18     000000010000000004897000000000020500000000000214800000000000000500000000000235800000000800000131171ACN    
01BRKM        PNA     N1201702200132000070BRKMB7      000000010000000003750000000000002000000000000000000000000000145000000000000147000000000100000021141ACN    
01BRML        ON      NM201702201830000070BRMLB86     000000010000000000860000000000000000000000000000000000000005000000000000005000000000000100000171091ACN    
01BRML        ON      NM201702201937000070BRMLB41     000000010000000001150000000000000000000000000001900000000000000000000000000001900000000100000011091ACN    
01BRML        ON      NM201702201945000070BRMLB12     000000010000000001200000000000000000000000000090600000000000003700000000000094300000000200000031091ACN    
01BRML        ON      NM201702201953000070BRMLB42     000000010000000001250000000000000000000000000081500000000000082200000000000163700000000200000041091ACN    
01BRML        ON      NM201702202470000070BRMLB2      000000010000000001275000000000000000000000000150200000000000000000000000000150200000000200000021092ACN    
01BRML        ON      NM201702201961000070BRMLB13     000000010000000001300000000000001500000000000012400000000000078600000000000092500000000500000051091ACN    
01BRML        ON      NM201702202488000070BRMLB73     000000010000000001325000000000000000000000000150200000000000151000000000000301200000000200000041092ACN    
01BRML        ON      NM201702202526000070BRMLB63     000000010000000001375000000000001000000000000000000000000001500000000000001501000000000300000021092ACN    
01BRML  FM    ON      NM201702201970000070BRMLB43     000000010000000001350000000000449200000000000000500000000000001000000000000450700000000200000051091ACN    
01BRML  FM    ON      NM201702201988000070BRMLB14     000000010000000001400000000000000200000000000263200000000002660600000000002924000000000900000181091ACN    
01BRML  FM    ON      NM201702201996000070BRMLB44     000000010000000001450000000000071100000000000119900000000000325000000000000516000000000400000061091ACN    
01BRML  FM    ON      NM201702202003000070BRMLB15     000000010000000001500000000000001800000000000036260000000001309740000000001347800000000700000041091ACN    
01BRML  FM    ON      NM201702202011000070BRMLB45     000000010000000001550000000000002100000000001000000000000000000000000000001002100000000200000031091ACN    
01BTOW        ON      NM201702200124000070BTOWB11     000000010000000001100000000000000000000000000022000000000000000000000000000022000000000200000011081ACN    
01BTOW        ON      NM201702200132000070BTOWB12     000000010000000001200000000000000000000000000022000000000000022000000000000044000000000100000021081ACN    
01BVMF        ON      NM201702200817000070BVMFB41     000000010000000001125000000000000000000000000011600000000000000000000000000011600000000100000011381ACN    
01BVMF        ON      NM201702200825000070BVMFB12     000000010000000001175000000000311600000000000020000000000000000000000000000331600000000300000031381ACN    
01BVMF        ON      NM201702200833000070BVMFB42     000000010000000001225000000000000000000000000011800000000000000000000000000011800000000100000011381ACN    
01BVMF        ON      NM201702200841000070BVMFB13     000000010000000001275000000000000000000000000012000000000000000000000000000012000000000100000011381ACN    
01BVMF        ON      NM201702200507000070BVMFB73     000000010000000001300000000000122000000000000009900000000000000000000000000131900000000200000021382ACN    
01BVMF        ON      NM201702200868000070BVMFB14     000000010000000001375000000000000500000000000000000000000000000000000000000000500000000100000011381ACN    
01BVMF        ON      NM201702200884000070BVMFB15     000000010000000001475000000000000800000000000000600000000000060000000000000061400000000300000041381ACN    
01BVMF        ON      NM201702200892000070BVMFB45     000000010000000001525000000000007400000000000054900000000000090000000000000152300000000300000041381ACN    
01BVMF        ON      NM201702200906000070BVMFB16     000000010000000001575000000000041200000000001780900000000000001300000000001823400000000300000121381ACN    
01BVMF        ON      NM201702200914000070BVMFB46     000000010000000001625000000000020600000000000707300000000000112800000000000840700000000800000171381ACN    
01BVMF        ON      NM201702200922000070BVMFB17     000000010000000001675000000000118100000000000709700000000001026300000000001854100000000700000281381ACN    
01BVMF        ON      NM201702200930000070BVMFB47     000000010000000001725000000000466100000000001529600000000000654100000000002649800000000900000601381ACN    
01BVMF        ON      NM201702201090000070BVMFB77     000000010000000001750000000000052400000000000000500000000000037900000000000090800000000400000221382ACN    
01BVMF        ON      NM201702201139000070BVMFB50     000000010000000002025000000000001200000000000018800000000000000000000000000020000000000400000021381ACN    
01BVMF        ON      NM201702200990000070BVMFB21     000000010000000002075000000000000000000000000017000000000000000000000000000017000000000300000021381ACN    
01BVMF        ON      NM201702201147000070BVMFB51     000000010000000002125000000000000000000000000003400000000000000000000000000003400000000200000021381ACN    
01BVMF        ON      NM201702201007000070BVMFB22     000000010000000002175000000000000000000000000025700000000000000000000000000025700000000500000021381ACN    
01BVMF        ON      NM201702201015000070BVMFB23     000000010000000002275000000000000000000000000013400000000000000000000000000013400000000500000021381ACN    
01BVMF        ON      NM201702200442000070BVMFB72     000000010000000001200000000000444800000000000000000000000000000000000000000444800000000200000011402ACN    
01BVMF        ON      NM201702200035000070BVMFB66     000000010000000001650000000000002400000000000080000000000000000000000000000082400000000200000051402ACN    
01BVMF        ON      NM201702200027000070BVMFB67     000000010000000001700000000000004200000000000070000000000000041000000000000115200000000400000061402ACN    
01BVMF        ON      NM201702200388000070BVMFB78     000000010000000001800000000000011700000000000000000000000000031100000000000042800000000200000101402ACN    
01BVMF        ON      NM201702200396000070BVMFB88     000000010000000001850000000000016800000000000453000000000000405600000000000875400000000500000161402ACN    
01BVMF        ON      NM201702200400000070BVMFB89     000000010000000001900000000000001300000000000000700000000000001000000000000003000000000200000041402ACN    
01BVMF  FM    ON      NM201702200949000070BVMFB18     000000010000000001775000000000280900000000000393600000000000383000000000001057500000002500000841381ACN    
01BVMF  FM    ON      NM201702200957000070BVMFB48     000000010000000001825000000000082200000000000462600000000000451400000000000996200000001200000521381ACN    
01BVMF  FM    ON      NM201702200965000070BVMFB19     000000010000000001875000000000238600000000000550500000000023766000000000024555100000004800001281381ACN    
01BVMF  FM    ON      NM201702200973000070BVMFB49     000000010000000001925000000000054100000000000309800000000000032600000000000396500000001200000311381ACN    
01BVMF  FM    ON      NM201702200981000070BVMFB20     000000010000000001975000000000234900000000000133300000000000240300000000000608500000005200001771381ACN    
01CCRO        ON      NM201702203018000070CCROB18     000000010000000001758000000000000000000000000000900000000000039400000000000040300000000400000051291ACN    
01CCRO        ON      NM201702202534000070CCROB79     000000010000000001933000000000000000000000000060400000000000000000000000000060400000000100000011292ACN    
01CCRO        ON      NM201702200400000070CCROB65     000000010000000001533000000000000000000000000003600000000000000000000000000003600000000100000011302ACN    
01CCRO        ON      NM201702200388000070CCROB75     000000010000000001583000000000000000000000000170800000000000001700000000000172500000000300000031302ACN    
01CCRO        ON      NM201702200396000070CCROB76     000000010000000001633000000000002300000000000205000000000000135000000000000342300000000300000041302ACN    
01CCRO        ON      NM201702200809000070CCROB86     000000010000000001683000000000000000000000000050000000000000000000000000000050000000000100000011302ACN    
01CCRO        ON      NM201702200370000070CCROB77     000000010000000001733000000000000300000000000000000000000000135000000000000135300000000500000041302ACN    
01CCRO  FM    ON      NM201702202976000070CCROB45     000000010000000001508000000000009500000000000000000000000000002200000000000011700000000100000071291ACN    
01CCRO  FM    ON      NM201702202984000070CCROB16     000000010000000001558000000000006500000000001063900000000000391200000000001461600000000900000111291ACN    
01CCRO  FM    ON      NM201702202992000070CCROB46     000000010000000001608000000000000100000000000586300000000000001500000000000587900000000300000061291ACN    
01CCRO  FM    ON      NM201702202526000070CCROB17     000000010000000001658000000000000000000000000176200000000000302000000000000478200000000900000081291ACN    
01CCRO  FM    ON      NM201702203000000070CCROB47     000000010000000001708000000000007800000000000647100000000001413300000000002068200000000400000081291ACN    
01CESP        PNB     N1201702200086000070CESPB46     000000010000000001650000000000000000000000000000000000000000200000000000000200000000000100000011241ACN    
01CIEL        ON      NM201702201856000070CIELB82     000000010000000002608000000000021800000000000012000000000000033600000000000067400000000300000261181ACN    
01CIEL        ON      NM201702202283000070CIELB95     000000010000000002921000000000006100000000000055000000000000007000000000000068100000000300000041182ACN    
01CIEL        ON      NM201702201864000070CIELB87     000000010000000003025000000000003800000000000012000000000000148550000000000164350000000400000071181ACN    
01CIEL        ON      NM201702200426000070CIELB53     000000010000000002358000000000000000000000000023100000000000000000000000000023100000000100000011211ACN    
01CIEL        ON      NM201702200442000070CIELB54     000000010000000002458000000000000200000000000036000000000000014200000000000050400000000200000041211ACN    
01CIEL        ON      NM201702200450000070CIELB25     000000010000000002508000000000004600000000000005000000000000002600000000000012200000000400000121211ACN    
01CIEL        ON      NM201702200469000070CIELB55     000000010000000002558000000000016000000000000076100000000000001800000000000093900000000300000141211ACN    
01CIEL        ON      NM201702201210000070CIELB86     000000010000000002633000000000000000000000000001000000000000000000000000000001000000000100000011212ACN    
01CIEL        ON      NM201702201244000070CIELB66     000000010000000002683000000000007800000000000000000000000000002800000000000010600000000100000061212ACN    
01CIEL        ON      NM201702200485000070CIELB27     000000010000000002708000000000025700000000000055670000000000026530000000000107900000001700000271211ACN    
01CIEL        ON      NM201702201279000070CIELB8      000000010000000002733000000000008000000000000000000000000000022200000000000030200000000200000051212ACN    
01CIEL        ON      NM201702200507000070CIELB28     000000010000000002808000000000006200000000000001500000000000252800000000000260500000001500000291211ACN    
01CIEL        ON      NM201702200035000070CIELB88     000000010000000002883000000000000600000000000100000000000000002100000000000102700000000300000081212ACN    
01CIEL        ON      NM201702200523000070CIELB29     000000010000000002946000000000001900000000000038200000000000070900000000000111000000002000000191211ACN    
01CIEL        ON      NM201702201228000070CIELB9      000000010000000002971000000000006900000000000000000000000000010000000000000016900000000300000031212ACN    
01CIEL        ON      NM201702201180000070CIELB91     000000010000000003100000000000002500000000000000000000000000045000000000000047500000000200000031212ACN    
01CIEL        ON      NM201702200043000070CIELB31     000000010000000003125000000000008100000000000120000000000000030900000000000159000000000800000171211ACN    
01CIEL        ON      NM201702200558000070CIELB1      000000010000000003175000000000000000000000000000000000000000000500000000000000500000000100000011211ACN    
01CIEL        ON      NM201702200566000070CIELB32     000000010000000003225000000000001600000000000004500000000000007200000000000013300000000100000051211ACN    
01CIEL        ON      NM201702200574000070CIELB2      000000010000000003275000000000000100000000000000300000000000000000000000000000400000000100000021211ACN    
01CIEL        ON      NM201702200582000070CIELB3      000000010000000003375000000000000000000000000025000000000000000000000000000025000000000100000011211ACN    
01CIEL        ON      NM201702200400000070CIELB94     000000010000000003400000000000000000000000000000000000000000122300000000000122300000000100000201212ACN    
01CIEL        ON      NM201702200086000070CIELB65     000000010000000003500000000000000000000000000000000000000000340400000000000340400000000200000201212ACN    
01CIEL        ON      NM201702200078000070CIELB68     000000010000000003800000000000000000000000000005000000000000000000000000000005000000000100000011212ACN    
01CIEL  FM    ON      NM201702200477000070CIELB56     000000010000000002658000000000014700000000000078900000000000010800000000000104400000000600000201211ACN    
01CIEL  FM    ON      NM201702200493000070CIELB57     000000010000000002758000000000026700000000000013100000000000735500000000000775300000000800000261211ACN    
01CIEL  FM    ON      NM201702200515000070CIELB58     000000010000000002858000000000010100000000000006800000000000037000000000000053900000000800000131211ACN    
01CIEL  FM    ON      NM201702200531000070CIELB30     000000010000000002996000000000003600000000000005000000000000120000000000000128600000000600000151211ACN    
01CIEL  FM    ON      NM201702200540000070CIELB60     000000010000000003075000000000025100000000000236950000000000097250000000000359300000006500000361211ACN    
01CMIG        PN      N1201702202135000070CMIGB7      000000010000000000674000000000000000000000000000000000000000000500000000000000500000000200000012171ACN    
01CMIG        PN      N1201702202143000070CMIGB72     000000010000000000694000000000001000000000000000000000000000000000000000000001000000000100000012171ACN    
01CMIG        PN      N1201702202160000070CMIGB76     000000010000000000734000000000007100000000000000000000000000017700000000000024800000000300000042171ACN    
01CMIG        PN      N1201702202178000070CMIGB78     000000010000000000754000000000001000000000000000000000000000000000000000000001000000000100000012171ACN    
01CMIG        PN      N1201702202186000070CMIGB8      000000010000000000774000000000013400000000000000000000000000090200000000000103600000000500000172171ACN    
01CMIG        PN      N1201702202194000070CMIGB82     000000010000000000794000000000011700000000000003000000000000008800000000000023500000000300000102171ACN    
01CMIG        PN      N1201702202208000070CMIGB84     000000010000000000814000000000059300000000000000000000000000065300000000000124600000000500000162171ACN    
01CMIG        PN      N1201702202216000070CMIGB86     000000010000000000834000000000010800000000000000000000000000000000000000000010800000000100000052171ACN    
01CMIG        PN      N1201702202224000070CMIGB88     000000010000000000854000000000000000000000000000000000000000055600000000000055600000000400000022171ACN    
01CMIG        PN      N1201702202283000070CMIGB10     000000010000000000974000000000000500000000000000200000000000000000000000000000700000000200000022171ACN    
01CMIG        PN      N1201702202291000070CMIGB40     000000010000000001024000000000033700000000000000000000000000023100000000000056800000000600000042171ACN    
01CMIG        PN      N1201702202097000070CMIGB11     000000010000000001074000000000000000000000000041000000000000000000000000000041000000000400000012171ACN    
01CMIG        PN      N1201702202330000070CMIGB13     000000010000000001274000000000000000000000000001100000000000000000000000000001100000000200000012171ACN    
01CMIG  FM    PN      N1201702202232000070CMIGB9      000000010000000000874000000000053900000000000184700000000000037800000000000276400000001600000382171ACN    
01CMIG  FM    PN      N1201702202240000070CMIGB92     000000010000000000894000000000056300000000000000000000000000007000000000000063300000000300000122171ACN    
01CMIG  FM    PN      N1201702202259000070CMIGB94     000000010000000000914000000000065500000000000000000000000000048800000000000114300000000500000212171ACN    
01CMIG  FM    PN      N1201702202267000070CMIGB96     000000010000000000934000000000121600000000000002000000000000204900000000000328500000000900000192171ACN    
01CMIG  FM    PN      N1201702202275000070CMIGB98     000000010000000000954000000000051000000000000013500000000000110000000000000174500000000100000042171ACN    
01CSAN        ON      NM201702200124000070CSANB34     000000010000000003255000000000000000000000000000000000000000007700000000000007700000000100000011141ACN    
01CSAN        ON      NM201702202089000070CSANB31     000000010000000003055000000000000000000000000000000000000000006000000000000006000000000100000011151ACN    
01CSAN        ON      NM201702202330000070CSANB36     000000010000000003555000000000000000000000000001700000000000000000000000000001700000000100000011151ACN    
01CSAN        ON      NM201702202178000070CSANB37     000000010000000003655000000000000000000000000005800000000000000000000000000005800000000100000011151ACN    
01CSAN        ON      NM201702202208000070CSANB38     000000010000000003755000000000002000000000000068400000000000000000000000000070400000000100000021151ACN    
01CSAN        ON      NM201702202224000070CSANB39     000000010000000003855000000000000700000000000039400000000000000200000000000040300000000100000041151ACN    
01CSAN        ON      NM201702202305000070CSANB13     000000010000000004305000000000000000000000000000000000000000120000000000000120000000000100000041151ACN    
01CSAN  FM    ON      NM201702202240000070CSANB40     000000010000000003955000000000000000000000000009400000000000007800000000000017200000000200000011151ACN    
01CSAN  FM    ON      NM201702202267000070CSANB41     000000010000000004055000000000000600000000000000000000000000002700000000000003300000000100000031151ACN    
01CSAN  FM    ON      NM201702202275000070CSANB42     000000010000000004155000000000000000000000000006000000000000023000000000000029000000000200000061151ACN    
01CSAN  FM    ON      NM201702202291000070CSANB43     000000010000000004255000000000001400000000000000100000000000000300000000000001800000000200000041151ACN    
01CSAN  FM    ON      NM201702202313000070CSANB44     000000010000000004355000000000000000000000000000000000000000002000000000000002000000000100000011151ACN    
01CSNA        ON        201702208362000070CSNAB92     000000010000000000920000000000002000000000000000000000000000000000000000000002000000000200000012471ACN    
01CSNA        ON        201702208389000070CSNAB96     000000010000000000960000000000000000000000000016400000000000000000000000000016400000000200000012471ACN    
01CSNA        ON        201702208397000070CSNAB98     000000010000000000980000000000007200000000000000000000000000006000000000000013200000000300000022471ACN    
01CSNA        ON        201702208400000070CSNAB10     000000010000000001000000000000101500000000000000000000000000013500000000000115000000000500000052471ACN    
01CSNA        ON        201702208214000070CSNAB40     000000010000000001050000000000006200000000000000000000000000000000000000000006200000000100000032471ACN    
01CSNA        ON        201702208419000070CSNAB11     000000010000000001100000000000026700000000000013900000000000015700000000000056300000000500000132471ACN    
01CSNA        ON        201702208966000070CSNAB72     000000010000000001225000000000006000000000000001600000000000000000000000000007600000000200000032472ACN    
01CSNA        ON        201702208443000070CSNAB14     000000010000000001400000000000018200000000000057800000000000007000000000000083000000001800000152471ACN    
01CSNA        ON        201702208249000070CSNAB44     000000010000000001450000000000000000000000000010000000000000000000000000000010000000000500000022471ACN    
01CSNA  FM    ON        201702207340000070CSNAB41     000000010000000001150000000000030700000000000003300000000000126200000000000160200000000400000182471ACN    
01CSNA  FM    ON        201702208427000070CSNAB12     000000010000000001200000000000946300000000000000700000000000037800000000000984800000002000000292471ACN    
01CSNA  FM    ON        201702208222000070CSNAB42     000000010000000001250000000000929600000000000000000000000000025200000000000954800000000700000192471ACN    
01CSNA  FM    ON        201702208435000070CSNAB13     000000010000000001300000000000423400000000000000800000000000098600000000000522800000002000000302471ACN    
01CSNA  FM    ON        201702208230000070CSNAB43     000000010000000001350000000000013900000000000004000000000000003500000000000021400000000700000092471ACN    
01CTIP        ON      NM201702200337000070CTIPB78     000000010000000004650000000000000000000000000000000000000000026400000000000026400000000100000021372ACN    
01CTIP        ON      NM201702200051000070CTIPB11     000000010000000005100000000000000000000000000000000000000000017500000000000017500000000100000011412ACN    
01CVCB        ON      NM201702200221000070CVCBB28     000000010000000002786000000000000000000000000000000000000000055600000000000055600000000200000021051ACN    
01CYRE        ON      NM201702202003000070CYREB10     000000010000000001000000000000000000000000000009600000000000000000000000000009600000000700000011281ACN    
01CYRE        ON      NM201702202500000070CYREB70     000000010000000001025000000000000000000000000400000000000000000000000000000400000000000200000011282ACN    
01CYRE        ON      NM201702202011000070CYREB40     000000010000000001050000000000000000000000000000000000000000076600000000000076600000000200000021281ACN    
01CYRE        ON      NM201702202020000070CYREB11     000000010000000001100000000000006400000000000000000000000000000000000000000006400000000100000031281ACN    
01CYRE        ON      NM201702202038000070CYREB41     000000010000000001150000000000000000000000000400000000000000001900000000000401900000000200000061281ACN    
01CYRE        ON      NM201702202836000070CYREB72     000000010000000001275000000000000000000000000000000000000001000000000000001000000000000300000171282ACN    
01CYRE        ON      NM201702202097000070CYREB44     000000010000000001450000000000000000000000000001500000000000000000000000000001500000000100000011281ACN    
01CYRE  FM    ON      NM201702202046000070CYREB12     000000010000000001200000000000000000000000000000300000000000102000000000000102300000000400000051281ACN    
01CYRE  FM    ON      NM201702202054000070CYREB42     000000010000000001250000000000000200000000000005000000000000000100000000000005300000000100000021281ACN    
01CYRE  FM    ON      NM201702202062000070CYREB13     000000010000000001300000000000000000000000000147500000000000095500000000000243000000001500000081281ACN    
01CYRE  FM    ON      NM201702202070000070CYREB43     000000010000000001350000000000000000000000000060000000000000000000000000000060000000000300000021281ACN    
01CYRE  FM    ON      NM201702202089000070CYREB14     000000010000000001400000000000000000000000000062800000000000000000000000000062800000000800000031281ACN    
01ECOR        ON      NM201702201180000070ECORB85     000000010000000000824000000000000000000000000010300000000000000000000000000010300000000100000011112ACN    
01ECOR        ON      NM201702201198000070ECORB11     000000010000000001074000000000000000000000000010300000000000000100000000000010400000000200000021111ACN    
01ECOR        ON      NM201702200019000070ECORB91     000000010000000000914000000000002200000000000000000000000000375400000000000377600000000300000241121ACN    
01EGIE        ON      NM201702200027000070EGIEB91     000000010000000003988000000000038000000000000000000000000000000000000000000038000000000200000021002ACN    
01EGIE        ON      NM201702200051000070EGIEB86     000000010000000003688000000000100000000000000000000000000000602800000000000702800000000100000011022ACN    
01ELET        PNB     N1201702200876000070ELETB21     000000010000000002100000000000600000000000000000000000000000000000000000000600000000000100000010681ACN    
01ELET        PNB     N1201702200884000070ELETB51     000000010000000002150000000000600000000000000000000000000000000000000000000600000000000100000010681ACN    
01ELET        PNB     N1201702200744000070ELETB57     000000010000000002750000000000000000000000000000000000000000144300000000000144300000000200000020681ACN    
01ELET        PNB     N1201702200825000070ELETB28     000000010000000002800000000000000000000000000012500000000000000000000000000012500000000400000010681ACN    
01ELET        PNB     N1201702200795000070ELETB68     000000010000000002825000000000000000000000000000000000000000014700000000000014700000000100000010682ACN    
01ELET        PNB     N1201702200850000070ELETB29     000000010000000002900000000000000000000000000556200000000000000000000000000556200000000900000030681ACN    
01ELET        PNB     N1201702200868000070ELETB31     000000010000000003100000000000000000000000000052700000000000000000000000000052700000000100000080681ACN    
01ELET        PNB     N1201702200833000070ELETB33     000000010000000003300000000000000000000000000012500000000000000000000000000012500000000100000040681ACN    
01ELET        ON      N1201702201651000070ELETB20     000000010000000002000000000000000000000000000000000000000000001600000000000001600000000100000031521ACN    
01ELET        ON      N1201702201856000070ELETB23     000000010000000002300000000000021500000000000000000000000000022300000000000043800000000100000111521ACN    
01ELET        ON      N1201702201775000070ELETB67     000000010000000002750000000000000000000000000000000000000000140000000000000140000000000100000041521ACN    
